:2000A500907FEEE0FEA3E0FFC374409EE49F50067E407F008008907FEEE0FEA3E0FF8E1B25
:2000C500907FECE0A3E0907FEAE0F51CA3E0F51D907FE8E0FC339201200009200106907F46
:2000E500C5E4F022907FE9E0FCBC80028015BC88030201C9BC890302021EBC8A0302026669
:20010500020299907F00E540F0907F01E53EF07C5A907F02ECF07C78907F03ECF07C209025
:200125007F04ECF07CAB907F05ECF07B257C17907F06EBF07B257C178C03907F07EBF090DE
:200145007F10E54EF0E54FA3F0E550A3F0E551A3F0907F14E55AF0907F15E55BF0907F16C5
:20016500E55EF0907F17E55CF0907F18E55DF0907F19E557F0907F1AE558F0907F1BE55985
:20018500F0907F1C786BE6F0907F1D7868E6F0907F1E7869E6F0907F1F786AE6F0907F20AB
:2001A500E526F0786286027B007C00907F21EAF0907E30E0907F39F0907E2FE0FE907F3A22
:2001C500F00202997C007E00AA1B7B00C3EC9AEE9B400302029930011E8C02747F2EFBECBC
:2001E500251CFDEE351DFF8D8274002FF583E0FF8A828B83F0801BEC251CFDEE351D240041
:20020500FFEC24C0F582EE347EF583E0FB8D828F83F00CBC00B20E80AF7E007F00AC1B7D97
:2002250000C3EE9CEF9D506C3001178E82747F2FF583EE251CFCEF351DEC2400F9E7FDF0E9
:200245008018EE251CFCEF351DEC2400F9EE24C0F582EF347EF583E0FDF70EBE00BF0F803C
:20026500BC7E007F00AC1B7D00C3EE9CEF9D50248E04747F2FFDEE251CFAEF351DFB8A820D
:1E02850074002BF583E493FB8C828D83F00EBE00D40F80D1300106907FB5E51BF022B7
:2002A300C0E0C082C083C007C006C0D075D000C28E1005028020AF2B8F8DAE2AE52B7F0050
:2002C3008E8BD28EE54030E4047F8080027F02907F98EFF08005907F98E4F0055BD0D0D00D
:2002E30006D007D083D082D0E032C0E0C082C083C007C006C005C004C000C0D075D000AF18
:20030300CDA2CF9207AECCADCDEFB505028008AECCA2CF92078D07EFC454F0FDEEC4540FBB
:200323004DFFAE4E3007010E7D008E04E42FFEEC3DFFEEC39536F538EF9537F5398E368FFF
:2003430037AD3A53077F907F9BE0FC30E403430780ED2DFC2400F8EEF208EFF20D53050FCD
:20036300EDB53B0280028D3A0534055CD0D0D000D004D005D006D007D083D082D0E032C2A9
:2003830008C2AFAE2CAF2DAC38AD39D2AFEC4D7004900000227A607B00C3EA9CE49D50040E
:2003A3008C028D038A1B8B1C751D00751E0090BE0075F005E4C007C0061216B3A882A98351
:2003C300D006D007883C893D751B9E751C068E828F83121460A983ACF0FD89008C018D040A
:2003E3007D00743E28F8740239F9EF24F8FF30E709C3E49EFEE49FFFD208EE249DFEEF346A
:20040300FBFF30E707C3E49EFEE49FFF8E1B8F1C8E828F83121460AC82AD83AEF0FF8D0276
:200423008E0374FA2AFA744C3BFB7449C39CFC743E9DFD74139EFEE49FFF30E70FC3E49C2E
:20044300FCE49DFDE49EFEE49FFFB2088E078D068C057C008A1B8B1C8C1D8C1E8C828D8371
:200463008EF0EFC001C0001216B3AC82AD83D000D001751B8B751C178C828D83121460AAA0
:2004830082AB83AEF0FF8E048F05300807C3E49CFCE49DFD747E2CFC740C3DFD853C1B85B5
:2004A3003D1C8C828D83121460AB83AEF0C313CE13CB13FC8B05E9C313C813C8F9E82CFCE4
:2004C300E93DFD853C1B853D1C8C828D83121460AEF0FF8E048F05751B0D751C008C828D0C
:2004E30083021460C025C0E0C0F0C082C083C007C006C005C004C003C002C001C000C0D09A
:2005030075D000907F98E4F0308E05753E81C28E752C00752D08E53E30E56E30066BE4B5A6
:200523002E077408B52F0280607FFAD209AD2EE52F24F8FE30E709C209C3E49DFDE49EFE38
:200543007431B53E13300908758DFF758B38801B758DB1758B188013300908758DFF758B38
:200563005A8006758DBE758B3F7FFB8F1B751C008D828E8312169685822A85832BD205C209
:200583008FD28E852E2C852F2D05261004028006852627752600D202D203055DD0D0D000FA
:2005A300D001D002D003D004D005D006D007D083D082D0F0D0E0D02532C28EC28FC2ABAF73
:2005C30089740F5FF589AF8E74EF5FF58EC2B87EA37F028F0590001CEDF090001DEEF07E6B
:2005E300ED7F028F05900004EDF0900005EEF0D2AB438910D2A8227F0074D3252750127435
:20060300C9252740047F31800874BF252740027F32EFB53E0122EFB5280C052974FD25290A
:1C062300500A8F3E8006752900753E098F2822AE82AF83C2AA8E2E8F2FD2AA22F5
:20063F007F047EA0907FA5E0FD20E6F8907FA57480F0907FA6EEF00E7D00907FA5E0FC30F5
:20065F00E0F8907FA5E0FC20E20CEF20E10A907FA5E0FC20E1027F28BD0E09907FA5E0FC6D
:20067F0074204CF0BD0F027F2AEF30E309907FA5E0FC74404CF0EF30E1158D040DEC24AB1B
:20069F00FCE4341CFB907FA6E0FA8C828B83F0EF20E41CEF30E50122EF30E006907FA6E0A5
:1406BF007F02BF0495907FA6E4F07F180206597F0102064302
:060000000200310202EDD6
:03000B00020F38A9
:030013000204E7FD
:03001B000202A33B
:0100230032AA
:03002B000206D3F7
:1B008A00753FFF754B1E754CE8754D017552F075530075540D75550A02002E05
:03002E000209D0F4
:2006D300C0E0C082C083C007C0D075D00030140D201512D215907F9D740BF08008C21590BD
:2006F3007F9D740FF0907F9BE0FFA2E5921AC374D09542740395435009200C0ED20CD20B21
:2007130080080542E4B542020543A20A201A01B3401B201A18C3E542947AE5439400400D8A
:20073300854244854345D20BE4F542F543A21A920AEFA2E4921BC374D0954674039547505F
:2007530009200F0ED20FD20E80080546E4B546020547A20D201B01B3401B201B18C3E54645
:20077300947AE5479400400D854648854749D20EE4F546F547A21B920DE5146002151415F3
:200793004BE54B7005D212754B3D154C74FFB54C02154DE54C454D700AD213754CE8754DAF
:2007B30001D204C2CF7401254EF54EE4354FF54FE43550F550E43551F551D211D0D0D0072F
:2007D300D083D082D0E032D21C740825CD500C301C012275540D75550A8077907F9AE0FF2F
:2007F30030E26AC2AFC2CAAFCCAECDD2CAD2AF301C012253060FE55625562452F98E05E4E7
:20081300FEFCEF4206EC4205EEF309EDF30556535603E4F554F555FFEF2F2452F9E3FD09A4
:20083300E3FE19ED2554F554EE3555F5550FBF040040E5C216C214E555C313C55413C55440
:20085300C313C55413C554F555786B0622C21C0207DCC216C214786B0622301743907E18E9
:200873007403F0740CA3F0E4A3F0A3F0907E1C7402F07419A3F0E4A3F0A3F0907E20F0A366
:20089300F0A3F0A3F0907E24F0A3F0907E26F0A3F0907E287435F0907E297469F002095F86
:2008B300907E187403F07413A3F07402A3F0E4A3F0C2AF907E31E52CF0E52DA3F0D2AF9097
:2008D3007E1C7862E6F008E6A3F008E6A3F008E6A3F0907E20E532F0E533A3F0907E2CE539
:2008F3004AF0A210E433907E2AF0907E24E530F0E531A3F0907E26E530F0E531A3F0907EEA
:200913002F7455F0907E307464F0E53AFFC3953B540FFE24F950027E067D00C3ED9E502393
:20093300ED2D2434F582E4347EF583ED253B540F25E02400F9E3FB09E3FC19EBF0ECA3F0A2
:200953000D80D88F3B907E33EEF0C210C21722901CBB7401F07408A3F07401A3F0E4A3F00F
:200973007820E2FE08E2FF901CBFEEF0EFA3F07822E2901CC1F0901CC2E4F0901CC3F07846
:200993002BE2901CC4F07829E2FE08E2FF901CC5EEF0EFA3F07828E2FFBF0407901CC3746E
:2009B30003F022BF010D901CC37402F0901CC4740AF022BF0306901CC37402F022907F920D
:2009D300E0FF74024FF0758E00907F93E4F0907F9C7430F0907F96E4F0907F94F0907F9D00
:2009F300740FF0907F97E4F0907F95F0907F9EF0907F98F012141112142A12063F753E0995
:200A1300754000901CAEE0FEA3E0FFBE0206BF1903754010BEBE06BFE6037540207F00EF81
:200A33002400F582E4347EF583E4F00FBF400040EE901CB9E0FEA3E0FF907E00EEF0EFA3A7
:200A5300F0901CB8E0907E08F0907E047408F07401A3F0907E12740DF0740AA3F0D2AFC2DE
:200A7300ACC28CC28DC2A9C28EC28FC2AB758900AF8E74E75FF58EC2CAC2CFC2ADAF8E74EC
:200A9300DF5FF58EC2CBC2C9C2C875CBF075CA0075CDF075CC00D2ADC2BDD2CAD288C289BF
:200AB300D2BAD28AC28BD2AA12134BE514700B301608D2143015031207DA907FB8E0FF3049
:200AD300E103020B5CC21D907E0FE515F0907E0CE541F0907F9AE0C4540FFF63070F907E6A
:200AF3000DEFF0907E12E554F0E555A3F0E53E30E50712086DD21D803F7449B53E3A102152
:200B13000280357F00EF2418FDE4347EFEEF24C7F582E4341CF583E0FC8D828E83F00FBF19
:200B3300280040E1D21D7837E2FE08E2FF4E6008907E26EEF0EFA3F0301D047F4080027F97
:200B530018907FB9EFF0786806907FC8E0FF30E103020C30786906907FC9E0F55FC3940C7F
:200B73005003020BFC907DC0E0FCA3E0FDA3E0FEA3E0FFBC010BBD0808BE0105BF00028040
:200B930003020BFC907DCAE0FEA3E0FF7829EEF208EFF2907DC4E0FEA3E0FF7820EEF208E4
:200BB300EFF2907DC6E0FF7822EFF2907DC8E0FFBF021F907DC9E0FFBF0A0778287401F2F4
:200BD3008023907DC9E0FF782BEFF278287403F28013907DC8E0FFBF030778287404F28083
:200BF300047828E4F2D218802F7404B55F2A907DC0E0FCA3E0FDA3E0FEA3E0FFBC0219BD59
:200C13000016BE0013BF00107449B53E04D2198007E53E30E502D217907FC9E4F01210FAFA
:200C3300E53E30E62FE514702B2016281019028015901CBB7402F0E4A3F0A3F0A3F0758226
:200C530004121053800E101802800912096275820C121053E53E75600075610820060302D1
:200C73000CEA1203828582308583317828E2FDBD014C852E60852F617820E2FB08E2FCAAAE
:200C930030AF31C3EA9BEF9C5016C3E52F6480948F500D74082560F560E43561F561803CDB
:200CB300C3E4952E7481852FF063F08095F0502CE56024F8F560E56134FFF561801EBD0367
:200CD3001B7820E2FE08E2A2E713CE13CEFF8E6074082FF5618005E4F530F53185608285AB
:200CF3006183120632E534FFC39535FEFD60198F357F007E007C007862ED26F6EF0836F657
:200D1300EE0836F6EC0836F6300E1C754A00200F14D21085481B85491C907271121608AE1D
:200D330082AF838E4AC20E300B1C754100200C1285441B85451C907271121608AE82AF832A
:200D53008E41C20BD2251012028005D2161214EC10020280127449B53E05753E818008E54E
:200D73003E20E403753E111022028012E53E30E305753E498008E53E30E503753E81201E25
:200D93000B744AB53E06201903753E091013028065100302804C786286060886077866EED4
:200DB300C396F532EF0896F5337866A60608A607C374179532E495339206C374059532E46C
:200DD3009533501485321B85331C9000181216968582328583338005E4F532F5331205FA8B
:200DF3008014E53E30E405753E09800A7409B53E05753E4AD219E53FB53E03020ED6853EAA
:200E13003FC28EC28FC2ABC2A8C2A9C21EC21F900800120632907F9EE4F0907F98F0907FD3
:200E330095F0E54030E419E53E30E606907F987480F0E53E5460602A907F9E7480F080226A
:200E5300E54030E51D907F957401F0E53E30E606907F987402F0E53E54606006907F9E7475
:200E730002F0E53E30E305120F778008E53E30E5031205BCAF3EBF1102801CBF3102801F18
:200E9300BF32028022BF49028005BF8130802090900012149F802C90AAAA12149F8024909D
:200EB300920012149F801C90924012149F801490555512149F90AAAA12148C8006900000C6
:090ED30012149F1214B2020ABBB2
:200EDC0032C0D075D0080586FF055B907F9BE0A2E2EE7007403AFD7E09802FDE2AC28E5035
:200EFC0031202034301F17BD170AD220E8C39478F5128016B8AA02801DEDF208800CBD0175
:200F1C00197878D21F8003ED13FDEF0586D0D03280F8C21F80F4C21F80F080EEC0D075D08E
:200F3C00880586CB907F98F0DA13E3B41706C2A9C21E800D7A0A09E3F50CE48004EC13FCD3
:200F5C009C055ACB0586D0D032C0D0C28E758BCCC28FD28EA21E055CD0D032C28CC28DC2A3
:200F7C00A9AF8974F05FF589AF8E74F75FF58ED2B9438902758C98D28CC28EC28FC2ABAF9C
:200F9C0089740F5FF589AF8E74EF5FF58ED2BBD2AB438920758D98758BCCD2B87EDD7F0EFC
:200FBC008F0590001CEDF090001DEEF07E657F0F8F05900004EDF07F00900005EEF08F0E68
:200FDC00D2A822E582A2D022A9827517C17518C0AD168D041DEC604AE3FC097B00E51762D1
:200FFC0004E51862038518177518008C82120FDF50066317016318C07B008C02EBCA25E051
:20101C00CA33FFEA6204EF6203EB5403A2E0CC13CC13A2E0CC13CC13CCFBEC6217EB6218C1
:20103C0080B085178285188322E582540F2430D430E60104F58222E582FFFE24F35003028E
:20105C0010E4E53E20E6030210E47F01785AEFF27D00C3ED9E5031ED24BBF582E4341CF573
:20107C0083E0FC8F030FEB245AF9ECC4540FF582121045E582F38F030FEB245AF98C821284
:20109C001045E582F30D80CAEF14F51675825BC007120FE4AD82AE83D007ED8E05FE7C04CD
:2010BC00EC2F14245AF98D82121045E582F3EEC4CDC4540F6DCD540FCD6DCDFEDCE2EF2485
:2010DC0004FF245AF87417F2D21E75095A750A0A750B00750C01C28DD2A975141D222020D9
:2010FC00030211A67EC77F1C751A0074FC25125006E51224CD5005C2230211977BC77C1C06
:20111C007A00C3EA9512503AEA2478F9E3FD600C74204D75F02784E5F024F7FDED54F06021
:20113C00028054E51AC454F02DF51AEA30E0108B828C83E51AF0A3AB82AC838B068C070A38
:20115C0080C074FE2EF58274FF3FF583E0FEA3E0FFE51224FCF516758278C007C006120F53
:20117C00E4858210858311D006D007EEB51008EFB51104D22380040515C223302304D2215C
:18119C00D222751400C21FC22022301F0AE51470060515C21FC2202212
:2011B400907FECE033541E600BC4B313500490000022C42324B4F58222907F00E4F0907F56
:2011D40001F0907FE8E0FFBF8002802EBF81028029BF822E1211B4AE82AF837D008E028F16
:2011F400038D04EE4F601B8A828B838CF0121705FA30E006907F007401F0907FB57402F01D
:20121400D322C322907FE8E0FF602CBF0232907FEAE0FEA3E0FF4E701E1211B4AE82AF831D
:20123400EE4F7002C3228E828F83E0FD5305FE8E828F83EDF08009907FB4E0FF74014FF0D3
:20125400D322907FE8E0FF602CBF0229907FEAE0FEA3E0FF4E701C1211B4AE82AF83EE4F90
:2012740060118E828F83E0FD4305018E828F83EDF08002C322D3227F00907FEAE0A3E0FE6D
:20129400FDBD0102800DBD02028021BD030280340213287D257E178E05907FD4EDF07D25AF
:2012B4007E177E00907FD5EDF002132A7D377E178E05907FD4EDF07D377E177E00907FD5C0
:2012D400EDF08052907FECE0FDA3E0FEBD0919BE0416907FEAE0FDA3E07E00BD040050341F
:2012F400ED90179393FF800B907FECE0FDA3E0FE4D7021EF75F002A42457FE741735F0FF3D
:201314008E048F058D04907FD4ECF07F00907FD5EEF08002C322D322907FD77402F07422C4
:20133400F07402F07422F0907FB87402F0907FC8E4F0907FC9F022907FAAE0FF30E014053A
:2013540059AF9174EF5FF591907FAA7401F0D2000200A5907FABE0FF20E001220559AF91A7
:2013740074EF5FF591907FAB7401F0907FE9E0FF24F35003021402EFF5F0240B83F582E5B7
:20139400F0241183F583E473B6BDF7C4F7F5CBF7D2F5DEF0F513131313131313131313138B
:2013B40013131211CD404C803A12121840458033121256403E802C12128B40378025901733
:2013D4003CE493FF907F00F0800A901742E493FF907F00F0907FB57401F0801712132C80CF
:2013F400128010907FB4E0FF74014FF08005C2001200A5907FB4E0FF74024FF022907FDE7D
:201414007404F0907FDFF0907FE0E4F0907FE1F0907FA104F022907FD6740AF07E607FEA6F
:20143400EE24FFFCEF34FFFD8C068D07EC4D70F0907FA974FFF0907FAAF0907FABF0AF91FF
:0C14540074EF5FF591907FD67406F022D3
:2017250012010001000000406135421901000102030109022000010100800009040000029B
:20174500FF00000007058202400000070502024000000403090408034D0048004900120353
:2017650045007A0054007200610043006F006E001E03320030002F00300034002F003100E8
:1217850030002000320031003A00310035000002060FE8
:20146000E582851BF0A4ADF0C582851CF0A42DFDE435F0C583FC851BF0A42DC58335F0FD76
:0C148000E433CC851CF0A42DC5F03C2208
:20148C00AE82AF83786DA60608A607786FA60608A60722AE82AF837871A60608A607787397
:2014AC00A60608A607222026067874E630E70B907F96E0FF74104FF08009907F96E0FF7495
:2014CC00EF5FF02024067870E630E70A907F96E0FF74204FF022907F96E0FF74DF5FF022C8
:2014EC007871E633F608E633F618E692E0F67873860608E6CE25E0CE33FF78717401567D02
:20150C00004206ED42077873A60608A607786DE633F608E633F618E692E0F6786F86060809
:20152C00E6CE25E0CE33FF786D740156FC7D004206ED4207786FA60608A6073025087870B2
:07154C00E64480F6C22522EF
:20155300783FE2FE08E2FF748E2EF582E43FF583751B77751C8A121460AC82AD83AEF0FF13
:201573007823E2FA08E2FB8A1B8B1C751D00751E008C828D838EF0EF121631AC82AD83AE9B
:20159300F0FFC3EC9453ED9403500490000022EC24ADF582ED34FCF583227825E2FE08E2D7
:2015B300FFC3948040049000002274532EFE74033FFF751B54751C768E828F83121460AE63
:2015D300F0FF8E028F037823E2F51B08E2F51C8A828B83121460AC82AD83AEF0FFC3EE947F
:1515F30023EF9400500490000022EE24DDF582EF34FFF5832215
:201608007A10E4FBFCE58225E0F582E58333F583EB33FBEC33FCEB951BF5F0EC951C4006D0
:09162800FCABF0438201DADD2283
:20163100FB7A20E4FCFDFEFFE5822582F582E58333F583E5F033F5F0EB33FB4017DAE980F2
:2016510042E5822582F582E58333F583E5F033F5F0EB33FBEC33FCED33FDEE33FEEF33FF21
:20167100EC951BED951CEE951DEF951E4013EC951BFCED951CFDEE951DFEEF951EFF438253
:0516910001DABEEB22AE
:06006000E478FFF6D8FD74
:20003E007900E94400601B7A0090179778E075921CE493F2A308B800020592D9F4DAF275DB
:02005E0092FF0F
:1D169600E582851BF0A4C582C0F0851CF0A4D0F025F0C583851BF0A42583F58322DD
:2000660078ABE84400600A790075921CE4F309D8FC7835E84400600C7901901CABE4F0A3E4
:04008600D8FCD9FACF
:2016B300FBC2D530E715D2D5E4C39582F582E49583F583E495F0F5F0E49BFBE51E30E71710
:2016D300B2D5E4C3951BF51BE4951CF51CE4951DF51DE4951EF51EEB12163130D513FBE4D6
:1216F300C39582F582E49583F583E495F0F5F0E49B2231
:0D003100758174121721E582600302002E14
:1C17050020F71430F6148883A88220F507E6A88375830022E280F7E49322E022F3
:0417210075820022AB
:00000001FF
