:2000A500907FEEE0FEA3E0FFC374409EE49F50067E407F008008907FEEE0FEA3E0FF8E0838
:2000C500907FECE0FDA3E0FF907FEAE0F509A3E0F50A907FE8E0FA33920120000920010681
:2000E500907FC5E4F022907FE9E0FABA8002801BBA88030201D8BA890302023ABA8A03029B
:200105000285BA8B030202C402030D907F00E540F0907F01E53EF07A5A907F02EAF07A7839
:20012500907F03EAF07A20907F04EAF07AAB907F05EAF07A007E14907F06EAF07A007E142D
:200145008E02907F07EAF0907F10E54EF0E54FA3F0E550A3F0E551A3F0907F14E55AF0909E
:200165007F15E55BF0907F16E55EF0907F17E55CF0907F18E55DF0907F19E557F0907F1A31
:20018500E558F0907F1BE559F0907F1C781EE6F0907F1D781BE6F0907F1E781CE6F0907F03
:2001A5001F781DE6F0907F20E526F07862860D750E00750F00751000AE0D907F21EEF09034
:2001C5007E30E0907F39F0907E2FE0FE907F3AF002030DE4F50BF50CAA087E00C3E50B9A8C
:2001E500E50C9E400302030D300121AA0B747F250CFEE50B2509FBE50C350AFC8B82740027
:200205002CF583E0FC8A828E83F0801FE50B2509FCE50C350A2400FEE50B24C0F582E50C05
:20022500347EF583E0FB8C828E83F0050BE4B50BA7050C80A37C007E00AA087B00C3EC9AA6
:20024500EE9B400302030D3001178C82747F2EF583EC2509FAEE350AEA2400F9E7FBF08032
:2002650018EC2509FAEE350AEA2400F9EC24C0F582EE347EF583E0FBF70CBC00BC0E80B91D
:20028500E4F50BF50CAA087B00C3E50B9AE50C9B400302030DAA0B747F250CFBE50B250927
:2002A500FCE50C350AFE8C8274002EF583E493FE8A828B83F0050BE4B50BCA050C80C6741F
:2002C50002B50906E4B50A0280187406B50906E4B50A0280167407B50906E4B50A02801425
:2002E50080267825EDF208EFF2801D7837EDF208EFF280147C0A7E1474002EFE8C828E836F
:12030500EDF0EFA3F0121105300106907FB5E508F02265
:20031700C0E0C082C083C007C006C0D075D000C28E1005028020AF2B8F8DAE2AE52B7F00DB
:200337008E8BD28EE54030E4047F8080027F02907F98EFF08005907F98E4F0055BD0D0D098
:2003570006D007D083D082D0E032C0E0C082C083C007C006C005C004C000C0D075D000AFA3
:20037700CDA2CF9207AECCADCDEFB505028008AECCA2CF92078D07EFC454F0FDEEC4540F47
:200397004DFFAE4E3007010E7D008E04E42FFEEC3DFFEEC39536F538EF9537F5398E368F8B
:2003B70037AD3A53077F907F9BE0FC30E403430780ED2DFC2400F8EEF208EFF20D53050F59
:2003D700EDB53B0280028D3A0534055CD0D0D000D004D005D006D007D083D082D0E032C235
:2003F70008C2AFAE2CAF2DAC38AD39D2AFEC4D7004900000227A607B00C3EA9CE49D50049A
:200417008C028D038A178B18751900751A0090BE0075F005E4C007C00612138EA882A98314
:20043700D006D007883C893D75179E7518068E828F8312113BA983ACF0FD89008C018D04C5
:200457007D00743E28F8740239F9EF24F8FF30E709C3E49EFEE49FFFD208EE249DFEEF34F5
:20047700FBFF30E707C3E49EFEE49FFF8E178F188E828F8312113BAC82AD83AEF0FF8D0232
:200497008E0374FA2AFA744C3BFB7449C39CFC743E9DFD74139EFEE49FFF30E70FC3E49CBA
:2004B700FCE49DFDE49EFEE49FFFB2088E078D068C057C008A178B188C198C1A8C828D830D
:2004D7008EF0EFC001C00012138EAC82AD83D000D00175178B7518178C828D8312113BAA84
:2004F70082AB83AEF0FF8E048F05300807C3E49CFCE49DFD747E2CFC740C3DFD853C178545
:200517003D188C828D8312113BAB83AEF0C313CE13CB13FC8B05E9C313C813C8F9E82CFC9B
:20053700E93DFD853C17853D188C828D8312113BAEF0FF8E048F0575170D7518008C828DCF
:200557008302113BC025C0E0C0F0C082C083C007C006C005C004C003C002C001C000C0D04D
:2005770075D000907F98E4F0308E05753E81C28E752C00752D08E53E30E56E30066BE4B532
:200597002E077408B52F0280607FFAD209AD2EE52F24F8FE30E709C209C3E49DFDE49EFEC4
:2005B7007431B53E13300908758DFF758B38801B758DB1758B188013300908758DFF758BC4
:2005D7005A8006758DBE758B3F7FFB8F177518008D828E8312137185822A85832BD205C2C5
:2005F7008FD28E852E2C852F2D05261004028006852627752600D202D203055DD0D0D00086
:20061700D001D002D003D004D005D006D007D083D082D0F0D0E0D02532C28EC28FC2ABAFFE
:2006370089740F5FF589AF8E74EF5FF58EC2B87E177F038F0590001CEDF090001DEEF07E81
:20065700617F038F05900004EDF0900005EEF0D2AB438910D2A8227F0074D325275012744B
:20067700C9252740047F31800874BF252740027F32EFB53E0122EFB5280C052974FD252996
:1C069700500A8F3E8006752900753E098F2822AE82AF83C2AA8E2E8F2FD2AA2281
:2006B3007F047EA0907FA5E0FD20E6F8907FA57480F0907FA6EEF00E7D00907FA5E0FC3081
:2006D300E0F8907FA5E0FC20E20CEF20E10A907FA5E0FC20E1027F28BD0E09907FA5E0FCF9
:2006F30074204CF0BD0F027F2AEF30E309907FA5E0FC74404CF0EF30E1158D040DEC24ABA7
:20071300FCE4341CFB907FA6E0FA8C828B83F0EF20E41CEF30E50122EF30E006907FA6E030
:140733007F02BF0495907FA6E4F07F180206CD7F010206B7A5
:0600000002003102036161
:01000B0032C2
:0300130002055B88
:03001B00020317C6
:0100230032AA
:03002B0002074782
:1B008A00753FFF754B1E754CE8754D017552F075530075540D75550A02002E05
:03002E00020A447F
:20074700C0E0C082C083C007C0D075D00030140D201512D215907F9D740BF08008C2159048
:200767007F9D740FF0907F9BE0FFA2E59218C374D09542740395435009200C0ED20CD20BAE
:2007870080080542E4B542020543A20A201801B3401B201818C3E542947AE5439400400D1A
:2007A700854244854345D20BE4F542F543A218920AEFA2E49219C374D095467403954750EF
:2007C70009200F0ED20FD20E80080546E4B546020547A20D201901B3401B201918C3E546D5
:2007E700947AE5479400400D854648854749D20EE4F546F547A219920DE51560021515157F
:200807004BE54B7005D212754B3D154C74FFB54C02154DE54C454D700AD213754CE8754D3A
:2008270001D204C2CF7401254EF54EE4354FF54FE43550F550E43551F551D211D0D0D007BA
:20084700D083D082D0E032D21A740825CD500C301A012275540D75550A8077907F9AE0FFBE
:2008670030E26AC2AFC2CAAFCCAECDD2CAD2AF301A012253060FE55625562452F98E05E474
:20088700FEFCEF4206EC4205EEF309EDF30556535603E4F554F555FFEF2F2452F9E3FD0930
:2008A700E3FE19ED2554F554EE3555F5550FBF040040E5C216C214E555C313C55413C554CC
:2008C700C313C55413C554F555781E0622C21A020850C216C214781E0622301743907E189C
:2008E7007403F0740CA3F0E4A3F0A3F0907E1C7402F07419A3F0E4A3F0A3F0907E20F0A3F2
:20090700F0A3F0A3F0907E24F0A3F0907E26F0A3F0907E287435F0907E297469F00209D39D
:20092700907E187403F07413A3F07402A3F0E4A3F0C2AF907E31E52CF0E52DA3F0D2AF9022
:200947007E1C7862E6F008E6A3F008E6A3F008E6A3F0907E20E532F0E533A3F0907E2CE5C4
:200967004AF0A210E433907E2AF0907E24E530F0E531A3F0907E26E530F0E531A3F0907E75
:200987002F7455F0907E307464F0E53AFFC3953B540FFE24F950027E067D00C3ED9E50231F
:2009A700ED2D2434F582E4347EF583ED253B540F25E02400F9E3FB09E3FC19EBF0ECA3F02E
:2009C7000D80D88F3B907E33EEF0C210C21722901CBB7401F07408A3F07401A3F0E4A3F09B
:2009E7007820E2FE08E2FF901CBFEEF0EFA3F07822E2901CC1F0901CC2E4F0901CC3F078D2
:200A07002BE2901CC4F07829E2FE08E2FF901CC5EEF0EFA3F07828E2FFBF0407901CC374F9
:200A270003F022BF010D901CC37402F0901CC4740AF022BF0306901CC37402F022907F9298
:200A4700E0FF74024FF0758E00907F93E4F0907F9C7430F0907F96E4F0907F94F0907F9D8B
:200A6700740FF0907F97E4F0907F95F0907F9EF0907F98F01210EC1211051206B3753E09FD
:200A8700754000901CAEE0FEA3E0FFBE0206BF1903754010BEBE06BFE6037540207F00EF0D
:200AA7002400F582E4347EF583E4F00FBF400040EE901CB9E0FEA3E0FF907E00EEF0EFA333
:200AC700F0901CB8E0907E08F0907E047408F07401A3F0907E12740DF0740AA3F0D2AFC26A
:200AE700ACC28CC28DC2A9C28EC28FC2AB758900AF8E74E75FF58EC2CAC2CFC2ADAF8E7478
:200B0700DF5FF58EC2CBC2C9C2C875CBF075CA0075CDF075CC00D2ADC2BDD2CAD288C2894A
:200B2700D2BAD28AC28BD2AA121026E515700B301608D21430150312084E907FB8E0FF2096
:200B4700E143C21B907E0FE516F0907E0CE541F0907F9AE0C4540FFF63070F907E0DEFF033
:200B6700907E12E554F0E555A3F0E53E30E5051208E1D21B301B047F4080027F18907FB944
:200B8700EFF0781B06907FC8E0FF30E103020C55781C06907FC9E0F55FC3940C5003020C3F
:200BA7002A907DC0E0FCA3E0FDA3E0FEA3E0FFBC010BBD0808BE0105BF00028003020C2A03
:200BC700907DCAE0FEA3E0FF7829EEF208EFF2907DC4E0FEA3E0FF7820EEF208EFF2907DCE
:200BE700C6E0FF7822EFF2907DC8E0FFBF021F907DC9E0FFBF0A0778287401F2804B907DD6
:200C0700C9E0FF782BEFF278287403F2803B907DC8E0FFBF030778287404F2802C7828E426
:200C2700F280267404B55F21907DC0E0FCA3E0FDA3E0FEA3E0FFBC0210BD000DBE000ABF1D
:200C47000007E53E30E502D217907FC9E4F0756000756108200603020CD61203F6858230B5
:200C67008583317828E2FDBD014C852E60852F617820E2FB08E2FCAA30AF31C3EA9BEF9C9B
:200C87005016C3E52F6480948F500D74082560F560E43561F561803CC3E4952E7481852FB7
:200CA700F063F08095F0502CE56024F8F560E56134FFF561801EBD031B7820E2FE08E2A267
:200CC700E713CE13CEFF8E6074082FF5618005E4F530F5318560828561831206A6E534FF1C
:200CE700C39535FEFD60198F357F007E007C007862ED26F6EF0836F6EE0836F6EC0836F667
:200D0700300E1C754A00200F14D2108548178549189072711212E3AE82AF838E4AC20E3010
:200D27000B1C754100200C128544178545189072711212E3AE82AF838E41C20BD222101241
:200D4700028005D2161211C710020280127449B53E05753E818008E53E20E403753E11101E
:200D670020028012E53E30E305753E498008E53E30E503753E811013028059100302804CAB
:200D8700786286060886077866EEC396F532EF0896F5337866A60608A607C374179532E418
:200DA70095339206C374059532E49533501485321785331890001812137185823285833369
:200DC7008005E4F532F53312066E8008E53E30E403753E09E53FB53E03020E88853E3FC2DA
:200DE7008EC28FC2ABC2A8C2A9C21CC21D9008001206A6907F9EE4F0907F98F0907F95F00C
:200E0700E54030E419E53E30E606907F987480F0E53E54606021907F9E7480F08019E54008
:200E270030E514907F957401F0E53EE53E54606006907F9E7402F0E53E30E503120630AFD4
:200E47003EBF1102800FBF31028012BF32028015BF8128801890AAAA12117A802490920099
:200E670012117A801C90924012117A801490555512117A90AAAA1211678006900000121121
:070E87007A12118D020B2FFE
:010E8E003231
:200E8F00907FECE033541E600BC4B313500490000022C42324B4F58222907F00E4F0907F7E
:200EAF0001F0907FE8E0FFBF8002802EBF81028029BF822E120E8FAE82AF837D008E028F66
:200ECF00038D04EE4F601B8A828B838CF01213E0FA30E006907F007401F0907FB57402F06E
:200EEF00D322C322907FE8E0FF602CBF0232907FEAE0FEA3E0FF4E701E120E8FAE82AF836E
:200F0F00EE4F7002C3228E828F83E0FD5305FE8E828F83EDF08009907FB4E0FF74014FF0FB
:200F2F00D322907FE8E0FF602CBF0229907FEAE0FEA3E0FF4E701C120E8FAE82AF83EE4FE0
:200F4F0060118E828F83E0FD4305018E828F83EDF08002C322D3227F00907FEAE0A3E0FE95
:200F6F00FDBD0102800DBD02028021BD030280340210037D007E148E05907FD4EDF07D004C
:200F8F007E147E00907FD5EDF00210057D127E148E05907FD4EDF07D127E147E00907FD563
:200FAF00EDF08052907FECE0FDA3E0FEBD0919BE0416907FEAE0FDA3E07E00BD0400503447
:200FCF00ED90146E93FF800B907FECE0FDA3E0FE4D7021EF75F002A42432FE741435F0FFB5
:200FEF008E048F058D04907FD4ECF07F00907FD5EEF08002C322D322907FD77402F07422ED
:20100F00F07402F07422F0907FB87402F0907FC8E4F0907FC9F022907FAAE0FF30E0140562
:20102F0059AF9174EF5FF591907FAA7401F0D2000200A5907FABE0FF20E001220559AF91CF
:20104F0074EF5FF591907FAB7401F0907FE9E0FF24F350030210DDEFF5F0240B83F582E508
:20106F00F0241183F583E4739198D29FD2D0A6D2ADD0B9CBD01010101010101010101010B5
:20108F001010120EA8404C803A120EF340458033120F31403E802C120F6640378025901405
:2010AF0017E493FF907F00F0800A90141DE493FF907F00F0907FB57401F08017121007806C
:2010CF00128010907FB4E0FF74014FF08005C2001200A5907FB4E0FF74024FF022907FDEA5
:2010EF007404F0907FDFF0907FE0E4F0907FE1F0907FA104F022907FD6740AF07E607FEA98
:20110F00EE24FFFCEF34FFFD8C068D07EC4D70F0907FA974FFF0907FAAF0907FABF0AF9127
:0C112F0074EF5FF591907FD67406F022FB
:201400001201000100000040613542190100010203010902200001010080000904000002C3
:20142000FF00000007058202400000070502024000000403090408034D004800490012037B
:2014400045007A0054007200610043006F006E001E03320030002F00300034002F00310010
:1214600030002000320031003A00310035000002060F10
:20113B00E5828517F0A4ADF0C5828518F0A42DFDE435F0C583FC8517F0A42DC58335F0FDAA
:0C115B00E433CC8518F0A42DC5F03C2234
:20116700AE82AF837868A60608A607786AA60608A60722AE82AF83786CA60608A607786ED3
:20118700A60608A60722202306786FE630E70B907F96E0FF74104FF08009907F96E0FF74C5
:2011A700EF5FF0202106786BE630E70A907F96E0FF74204FF022907F96E0FF74DF5FF022F8
:2011C700786CE633F608E633F618E692E0F6786E860608E6CE25E0CE33FF786C7401567D39
:2011E700004206ED4207786EA60608A6077868E633F608E633F618E692E0F6786A86060841
:20120700E6CE25E0CE33FF7868740156FC7D004206ED4207786AA60608A607302208786BEC
:07122700E64480F6C222221A
:20122E00783FE2FE08E2FF748E2EF582E43FF58375177775188A12113BAC82AD83AEF0FF6B
:20124E007823E2FA08E2FB8A178B18751900751A008C828D838EF0EF12130CAC82AD83AEFB
:20126E00F0FFC3EC9453ED9403500490000022EC24ADF582ED34FCF583227825E2FE08E2FF
:20128E00FFC3948040049000002274532EFE74033FFF7517547518768E828F8312113BAEBB
:2012AE00F0FF8E028F037823E2F51708E2F5188A828B8312113BAC82AD83AEF0FFC3EE94D7
:1512CE0023EF9400500490000022EE24DDF582EF34FFF583223D
:2012E3007A10E4FBFCE58225E0F582E58333F583EB33FBEC33FCEB9517F5F0EC9518400601
:09130300FCABF0438201DADD22AB
:20130C00FB7A20E4FCFDFEFFE5822582F582E58333F583E5F033F5F0EB33FB4017DAE9801A
:20132C0042E5822582F582E58333F583E5F033F5F0EB33FBEC33FCED33FDEE33FEEF33FF49
:20134C00EC9517ED9518EE9519EF951A4013EC9517FCED9518FDEE9519FEEF951AFF43829B
:05136C0001DABEEB22D6
:06006000E478FFF6D8FD74
:20003E007900E94400601B7A0090147278E075921CE493F2A308B800020592D9F4DAF27503
:02005E0092FF0F
:1D137100E5828517F0A4C582C0F08518F0A4D0F025F0C5838517F0A42583F5832211
:2000660078ABE84400600A790075921CE4F309D8FC7835E84400600C7901901CABE4F0A3E4
:04008600D8FCD9FACF
:20138E00FBC2D530E715D2D5E4C39582F582E49583F583E495F0F5F0E49BFBE51A30E7173C
:2013AE00B2D5E4C39517F517E49518F518E49519F519E4951AF51AEB12130C30D513FBE446
:1213CE00C39582F582E49583F583E495F0F5F0E49B2259
:0D00310075816F1213FCE582600302002E42
:1C13E00020F71430F6148883A88220F507E6A88375830022E280F7E49322E0221C
:0413FC0075820022D4
:00000001FF
