:2000A500907FEEE0FEA3E0FFC374409EE49F50067E407F008008907FEEE0FEA3E0FF8E1030
:2000C500907FECE0FDA3E0FF907FEAE0F511A3E0F512907FE8E0FA33920120000920010671
:2000E500907FC5E4F022907FE9E0FABA8002801BBA88030201BEBA8903020220BA8A0302CF
:20010500026BBA8B030202AA0202F3907F00E526F0907F01E524F07A3A907F02EAF07A58FC
:20012500907F03EAF07A00907F04EAF07A8B907F05EAF07AF67E10907F06EAF07AF67E1089
:200145008E02907F07EAF0907F10E52FF0E530A3F0E531A3F0E532A3F0907F14E53BF09039
:200165007F15E53CF0907F16E53FF0907F17E53DF0907F18E53EF0907F19E538F0907F1ACC
:20018500E539F0907F1BE53AF0907F1C7848E6F0907F1D7845E6F0907F1E7846E6F0907FC3
:2001A5001F7847E6F0907E30E0907F39F0907E2FE0FE907F3AF00202F3E4F513F514AA1036
:2001C5007E00C3E5139AE5149E40030202F3300121AA13747F2514FEE5132511FBE51435E6
:2001E50012FC8B8274002CF583E0FC8A828E83F0801FE5132511FCE51435122400FEE513BB
:2002050024C0F582E514347EF583E0FB8C828E83F00513E4B513A7051480A37C007E00AA26
:20022500107B00C3EC9AEE9B40030202F33001178C82747F2EF583EC2511FAEE3512EA24D4
:2002450000F9E7FBF08018EC2511FAEE3512EA2400F9EC24C0F582EE347EF583E0FBF70CA1
:20026500BC00BC0E80B9E4F513F514AA107B00C3E5139AE5149B40030202F3AA13747F2598
:2002850014FBE5132511FCE5143512FE8C8274002EF583E493FE8A828B83F00513E4B51377
:2002A500CA051480C67402B51106E4B5120280187406B51106E4B5120280167407B51106B9
:2002C500E4B51202801480267805EDF208EFF2801D7817EDF208EFF280147C007E117400E6
:1802E5002EFE8C828E83EDF0EFA3F0120E6A300106907FB5E510F022CB
:2002FD007F047EA0907FA5E0FD20E6F8907FA57480F0907FA6EEF00E7D00907FA5E0FC303B
:20031D00E0F8907FA5E0FC20E20CEF20E10A907FA5E0FC20E1027F28BD0E09907FA5E0FCB2
:20033D0074204CF0BD0F027F2AEF30E309907FA5E0FC74404CF0EF30E1158D040DEC248B80
:20035D00FCE4341CFB907FA6E0FA8C828B83F0EF20E41CEF30E50122EF30E006907FA6E0EA
:14037D007F02BF0495907FA6E4F07F180203177F01020301D1
:060000000200310209A517
:03000B000209786F
:0300130002039154
:03001B0002091DBA
:0100230032AA
:03002B000203A924
:1B008A007525FF752C1E752DE8752E017533F075340075350D75360A02002EF8
:03002E0002056761
:20039100C0E0C082C083907F98E4F0D202D203053ED083D082D0E032C0E0C082C083C0074D
:2003B100C0D075D000300A0D200B12D20B907F9D740BF08008C20B907F9D740FF0907F9BBD
:2003D100E0FFA2E59210C374D0952874039529500920060ED206D20580080528E4B5280257
:2003F1000529A204201001B3401B201018C3E528947AE5299400400D85282A85292BD2053D
:20041100E4F528F529A2109204E51960021519152CE52C7005D208752C3D152D74FFB52DC0
:2004310002152EE52D452E7008D209752DE8752E01C2CF7401252FF52FE43530F530E4355B
:2004510031F531E43532F532D207D0D0D007D083D082D0E032D211740825CD500C301101FC
:200471002275350D75360A8077907F9AE0FF30E26AC2AFC2CAAFCCAECDD2CAD2AF30110190
:200491002253060FE53725372432F98E05E4FEFCEF4206EC4205EEF309EDF305375337038C
:2004B100E4F535F536FFEF2F2432F9E3FD09E3FE19ED2535F535EE3536F5360FBF0400409C
:2004D100E5C20CC20AE536C313C53513C535C313C53513C535F53678480622C21102046863
:2004F100C20CC20A78480622901C9B7401F07408A3F07401A3F0E4A3F07800E2FE08E2FFEE
:20051100901C9FEEF0EFA3F07802E2901CA1F0901CA2E4F0901CA3F0780BE2901CA4F07808
:2005310009E2FE08E2FF901CA5EEF0EFA3F07808E2FFBF0407901CA37403F022BF010D90C7
:200551001CA37402F0901CA4740AF022BF0306901CA37402F022907F92E0FF74024FF0753C
:200571008E00907F93E4F0907F9C7430F0907F96E4F0907F94F0907F9D740FF0907F97E472
:20059100F0907F95F0907F9EF0907F98F0120E51120E6A1202FD752409752600901C8EE02F
:2005B100FEA3E0FFBE0206BF1903752610BEBE06BFE6037526207F00EF2400F582E4347EDA
:2005D100F583E4F00FBF400040EE901C99E0FEA3E0FF907E00EEF0EFA3F0901C98E0907E3D
:2005F10008F0907E047408F07401A3F0907E12740DF0740AA3F0D2AFC2ACC28CC28DC2A9D3
:20061100C28EC28FC2AB758900AF8E74E75FF58EC2CAC2CFC2ADAF8E74DF5FF58EC2CBC2F6
:20063100C9C2C875CBF075CA0075CDF075CC00D2ADC2BDD2CAD288C289D2BAD28AC28BD22E
:20065100AA120D8BE519700B300C08D20A300B03120466907FB8E0FF30E1030206E7C21265
:20067100907E0FE51AF0907E0CE527F0907F9AE0C4540FFF63070F907E0DEFF0907E12E520
:2006910035F0E536A3F07449B5243A10160280357F00EF2418FDE4347EFEEF24A7F582E479
:2006B100341CF583E0FC8D828E83F00FBF280040E1D2127817E2FE08E2FF4E6008907E2638
:2006D100EEF0EFA3F03012047F4080027F18907FB9EFF0784506907FC8E0FF30E10302074E
:2006F100B2784606907FC9E0F540C3940C5003020787907DC0E0FCA3E0FDA3E0FEA3E0FF14
:20071100BC010BBD0808BE0105BF00028003020787907DCAE0FEA3E0FF7809EEF208EFF21A
:20073100907DC4E0FEA3E0FF7800EEF208EFF2907DC6E0FF7802EFF2907DC8E0FFBF021F95
:20075100907DC9E0FFBF0A0778087401F28023907DC9E0FF780BEFF278087403F280139054
:200771007DC8E0FFBF030778087404F280047808E4F2D20E80267404B54021907DC0E0FCFA
:20079100A3E0FDA3E0FEA3E0FFBC0210BD000DBE000ABF00077449B52402D20F907FC9E46A
:2007B100F0120B3AE52430E62FE519702B200C28100F028015901C9B7402F0E4A3F0A3F039
:2007D100A3F0758204120A93800E100E0280091204F975820C120A93E52430051C752700DD
:2007F100200612852A41852B42907271121048AE82AF838E27C205D21A1008028005D20CAA
:20081100120F2C10020280127449B524057524818008E52420E4037524111017028012E53D
:200831002430E3057524498008E52430E50375248120130B744AB52406200F037524091007
:200851000902801E10030280057524818014E52430E405752409800A7409B5240575244A0A
:20087100D20FE525B52403020916852425C28EC28FC2ABC2A8C2A9C213C214907F9EE4F0A2
:20089100907F98F0907F95F0E52630E419E52430E606907F987480F0E5245460602A907FDE
:2008B1009E7480F08022E52630E51D907F957401F0E52430E606907F987402F0E5245460CE
:2008D1006006907F9E7402F0E52430E3031209B7AF24BF11028012BF49028005BF812080F7
:2008F10010909000120EDF801C90AAAA120EDF8014905555120EDF90AAAA120ECC80069086
:0B0911000000120EDF120EF202065270
:20091C0032C0D075D0080586FF053C907F9BE0A2E2EE7007403AFD7E09802FDE2AC28E5019
:20093C0031201534301417BD170AD215E8C39458F5178016B88A02801DEDF208800CBD0196
:20095C00197858D2148003ED13FDEF0586D0D03280F8C21480F4C21480F080EEC0D075D095
:20097C00880586CB907F98F0DA13E3B41706C2A9C213800D7A0A09E3F50CE48004EC13FCA4
:20099C009C053BCB0586D0D032C0D0C28E758BCCC28FD28EA213053DD0D032C28CC28DC2B2
:2009BC00A9AF8974F05FF589AF8E74F75FF58ED2B9438902758C98D28CC28EC28FC2ABAF62
:2009DC0089740F5FF589AF8E74EF5FF58ED2BBD2AB438920758D98758BCCD2B87E1D7F0987
:2009FC008F0590001CEDF090001DEEF07EA57F098F05900004EDF07F00900005EEF08F0EF4
:200A1C00D2A822E582A2D022A982751CC1751DC0AD1B8D041DEC604AE3FC097B00E51C6282
:200A3C0004E51D6203851D1C751D008C82120A1F5006631C01631DC07B008C02EBCA25E0BD
:200A5C00CA33FFEA6204EF6203EB5403A2E0CC13CC13A2E0CC13CC13CCFBEC621CEB621D7D
:200A7C0080B0851C82851D8322E582540F2430D430E60104F58222E582FFFE24F35003024A
:200A9C000B24E52420E603020B247F01783AEFF27D00C3ED9E5031ED249BF582E4341CF51D
:200ABC0083E0FC8F030FEB243AF9ECC4540FF582120A85E582F38F030FEB243AF98C821250
:200ADC000A85E582F30D80CAEF14F51B75823BC007120A24AD82AE83D007ED8E05FE7C0439
:200AFC00EC2F14243AF98D82120A85E582F3EEC4CDC4540F6DCD540FCD6DCDFEDCE2EF2431
:200B1C0004FF243AF87417F2D21375093A750A0A750B00750C01C28DD2A975191D222015EF
:200B3C0003020BE67EA77F1C751F0074FC25175006E51724CD5005C218020BD77BA77C1C93
:200B5C007A00C3EA9517503AEA2458F9E3FD600C74204D75F02784E5F024F7FDED54F06002
:200B7C00028054E51FC454F02DF51FEA30E0108B828C83E51FF0A3AB82AC838B068C070AEF
:200B9C0080C074FE2EF58274FF3FF583E0FEA3E0FFE51724FCF51B758258C007C006120A34
:200BBC0024858215858316D006D007EEB51508EFB51604D2188004051AC218301804D216F5
:180BDC00D217751900C214C2152230140AE5197006051AC214C215220B
:200BF400907FECE033541E600BC4B313500490000022C42324B4F58222907F00E4F0907F1C
:200C140001F0907FE8E0FFBF8002802EBF81028029BF822E120BF4AE82AF837D008E028FA1
:200C3400038D04EE4F601B8A828B838CF01210D6FA30E006907F007401F0907FB57402F018
:200C5400D322C322907FE8E0FF602CBF0232907FEAE0FEA3E0FF4E701E120BF4AE82AF83A9
:200C7400EE4F7002C3228E828F83E0FD5305FE8E828F83EDF08009907FB4E0FF74014FF099
:200C9400D322907FE8E0FF602CBF0229907FEAE0FEA3E0FF4E701C120BF4AE82AF83EE4F1C
:200CB40060118E828F83E0FD4305018E828F83EDF08002C322D3227F00907FEAE0A3E0FE33
:200CD400FDBD0102800DBD02028021BD03028034020D687DF67E108E05907FD4EDF07DF6A0
:200CF4007E107E00907FD5EDF0020D6A7D087E118E05907FD4EDF07D087E117E00907FD5BD
:200D1400EDF08052907FECE0FDA3E0FEBD0919BE0416907FEAE0FDA3E07E00BD04005034E4
:200D3400ED90116493FF800B907FECE0FDA3E0FE4D7021EF75F002A42428FE741135F0FF6C
:200D54008E048F058D04907FD4ECF07F00907FD5EEF08002C322D322907FD77402F074228A
:200D7400F07402F07422F0907FB87402F0907FC8E4F0907FC9F022907FAAE0FF30E0140500
:200D94003AAF9174EF5FF591907FAA7401F0D2000200A5907FABE0FF20E00122053AAF91AB
:200DB40074EF5FF591907FAB7401F0907FE9E0FF24F35003020E42EFF5F0240B83F582E543
:200DD400F0241183F583E473F6FD370437350B3712351E30350D0D0E0E0E0E0E0E0E0E0E4A
:200DF4000E0E120C0D404C803A120C5840458033120C96403E802C120CCB40378025901120
:200E14000DE493FF907F00F0800A901113E493FF907F00F0907FB57401F08017120D6C80BE
:200E3400128010907FB4E0FF74014FF08005C2001200A5907FB4E0FF74024FF022907FDE42
:200E54007404F0907FDFF0907FE0E4F0907FE1F0907FA104F022907FD6740AF07E607FEA35
:200E7400EE24FFFCEF34FFFD8C068D07EC4D70F0907FA974FFF0907FAAF0907FABF0AF91C5
:0C0E940074EF5FF591907FD67406F02299
:2010F6001201000100000040613542190100010203010902200001010080000904000002D1
:20111600FF00000007058202400000070502024000000403090408034D0048004900120388
:2011360045007A0054007200610043006F006E001E03320030002F00300034002F0031001D
:1211560030002000320031003A00310035000002060F1D
:200EA000E5828541F0A4ADF0C5828542F0A42DFDE435F0C583FC8541F0A42DC58335F0FDCA
:0C0EC000E433CC8542F0A42DC5F03C22A8
:200ECC00AE82AF83784AA60608A607784CA60608A60722AE82AF83784EA60608A6077850E9
:200EEC00A60608A60722201B067851E630E70B907F96E0FF74104FF08009907F96E0FF7489
:200F0C00EF5FF0201906784DE630E70A907F96E0FF74204FF022907F96E0FF74DF5FF022BB
:200F2C00784EE633F608E633F618E692E0F67850860608E6CE25E0CE33FF784E7401567D30
:200F4C00004206ED42077850A60608A607784AE633F608E633F618E692E0F6784C86060838
:200F6C00E6CE25E0CE33FF784A740156FC7D004206ED4207784CA60608A607301A08784DEC
:070F8C00E64480F6C21A22C0
:200F9300781FE2FE08E2FF748E2EF582E43FF58375417775428A120EA0AC82AD83AEF0FF73
:200FB3007803E2FA08E2FB8A418B427543007544008C828D838EF0EF121071AC82AD83AEAF
:200FD300F0FFC3EC9453ED9403500490000022EC24ADF582ED34FCF583227805E2FE08E2BD
:200FF300FFC3948040049000002274532EFE74033FFF7541547542768E828F83120EA0AEA3
:20101300F0FF8E028F037803E2F54108E2F5428A828B83120EA0AC82AD83AEF0FFC3EE94DE
:1510330023EF9400500490000022EE24DDF582EF34FFF58322DA
:201048007A10E4FBFCE58225E0F582E58333F583EB33FBEC33FCEB9541F5F0EC954240064A
:09106800FCABF0438201DADD2249
:20107100FB7A20E4FCFDFEFFE5822582F582E58333F583E5F033F5F0EB33FB4017DAE980B8
:2010910042E5822582F582E58333F583E5F033F5F0EB33FBEC33FCED33FDEE33FEEF33FFE7
:2010B100EC9541ED9542EE9543EF95444013EC9541FCED9542FDEE9543FEEF9544FF4382E9
:0510D10001DABEEB2274
:06006000E478FFF6D8FD74
:20003E007900E94400601B7A0090116878C075921CE493F2A308B800020592D9F4DAF27530
:02005E0092FF0F
:20006600788BE84400600A790075921CE4F309D8FC7835E84400600C7901901C8BE4F0A324
:04008600D8FCD9FACF
:0D0031007581511210F2E582600302002E6D
:1C10D60020F71430F6148883A88220F507E6A88375830022E280F7E49322E02229
:0410F20075820022E1
:00000001FF
