:04008A0078567655D9
:2000A90078647410F2087404F222E582FFAD242D2404FEED24E6F582E4341CF583249F40AA
:2000C90021EEF52424BF40028E2574A4F0A3FCEFF0A362040F750100E309F0A36204DFF847
:2000E900ECF02222AF82E52930E7012278007440F27801EFF27802E52AF27803E529F2757B
:2001090082030200B3AF827D2E7E188D828E83E0F52CA3AD82AE83E52C603F8D828E83E056
:20012900FBEFB5032C79008D028E03752B00C3E52B952C50128A828B83E0FCA3AA82AB83C6
:20014900ECF309052B80E7E52C14F5821200B3D322E52C2DFDE43EFE80B1C322AF82751C8E
:200169006A751D18AB1CAC1D8B828C83E0FA8A1E6030EFB51E1FAA1CAE1D7902751B088A95
:20018900828E83E0FDA3AA82AE83EDF309151BE4B51BECD32274082BFBE43CFC8B1C8C1D2A
:2001A90080C6C322AE82AF83A91B7D08E3FC098E828F83ECF0A3AE82AF83DDF022AF8279DC
:2001C90000EF75F008A42446FE741D35F0FF7D088E828F83E0FCA3AE82AF83ECF309DDF0BC
:2001E900221201C67800E2FFBF30005003020277EF24CC40797D8A7E1874002EFE8D828E73
:2002090083A3EFF074022DFBE43EFC8B828C83E0FA0A8B828C83EAF08D828E83A3A3A3E431
:20022900F08F057E00ED24D0FDEE34FFCD25E0CD33CD25E0CD33FEED2474F582EE341CF5E3
:20024900837804E2FB08E2FC08E2FD08E2FEEBF0ECA3F0EDA3F0EEA3F078637403F2BF3076
:200269000578637402F2BF310578637401F2BF370D751B00901C84C0071201ADD007BF46D0
:200289000D7807E2FFBF010678067955E2F722AE82AF83E51D251D25E02433F9EEF309EF07
:2002A900F319740229F8747F551BF2090909AF1CEFF32285822D85832E7DFF8D2F7530000C
:2002C900AA2E7B00EB2B25E02433F531D203D204EB242BF8E2FC20E47CEC0303543FFC74FA
:2002E900035C2420F8E2FCBCB96BA831E2F53208E2F533E52DB53207E52EB53302800AC25F
:2003090004E53245336002C20374022531F8E2FCAF2DB507028007C204EC6002C203740307
:200329002531F9E3FFB502028007C204EF6002C203EB2423F9E3FFBF020B300318ED30E73F
:20034900148B058010BF0302800330000830040585302F800B0B8B30BB080050030202CD8C
:20036900300017ED60047FFF800DE52F20E704AE2F80027E008E078F8222E52F30E722EDD3
:2003890020E71EAE2D8E1B8A1C8D1D852D82852E83C005120298D005EDF52F2423F87403E4
:2003A900F2E52F20E707E52F2453F8E4F2852F82227F00EF2423F9E3FEBE03427EFFEF244D
:2003C9002BF8E2FD30E40E7E03ED30E12374FD5DF27E06801BEF2453F8E270057408F280CC
:2003E9000F7E02E2FD1DEDF2ED70057E087402F38E29752A018F82C0071200EDD0070FBF66
:2004090008B122AF8274C025244004EF30E701227800744EF27801EFF27F00E528604774B0
:200429000A2400F9E528F309E52830E712E534F309E535F309E534F309E535F3097F04E58F
:200449002830E6127410F309E4F3097468F309E4F309EF2404FFE52830E50A7455F30978AC
:2004690056E6F30F0F0F74092FF5820200B37856740826F67856E630E3331203BA90017807
:200489001202BCE582FF20E723758204C007120165D007785674405625E0FE74044E7802C7
:2004A900F27534787535018F8202040C227D927E1874002EFE7857068D828E83A3A37857E1
:2004C900E6F074042DFDE43EFE785EE2FB08E2FC8D828E83EBF0ECA3F07D9A7E1874002E19
:2004E900FE74012DFBE43EFC8B828C83E0FA0A8B828C83EAF074022DFBE43EFC7862E28B41
:20050900828C83F074052DFDE43EFE7868E2FB08E2C313CB13CBC313CB13CBFC53040F8DFA
:20052900828E83EBF0A3EC540FF5F0E054F045F0F09005111202BCE582FF30E70122EF24FB
:200549002BF9E3FE540360407D03EE30E1027D058D29752A018F82C007C0011200EDD001D4
:20056900D007E3FE74FC5EF3EFFD3395E0FE8D828E83C0071201EA78558682120165D0075F
:20058900500678557600801AE52790185893FE05277412B527037527008E82C00712016506
:2005A900D0073000027F007534117535058F8202040C753BFF907FC6E0FE30E1030209534A
:2005C900907FC7E0FE907E40E0FDBDA40280047D00804B907E41E0FC24DE50047D03803E45
:2005E90074A46CFB7A0074022A2440F582E4347EF583E0FF6203BA0A00500874022A241438
:20060900F8EFF20AC3EC9A50DD74022A2440F582E4347EF583E0FFB5030280507D027F0088
:20062900C3EF9E400302094EEF2440FBE4347EFC8B828C83E070030F80E6780074AEF278FD
:2006490001EDF2EE24DF50027E20EE04FFEF6014EF2401F9EF243FF582E4347EF583E0FDBB
:20066900F31F80E98E821200B302094E7816E2F5367818E2F5387819E2F5397817E2FC740C
:200689001F5CF537C39408400302092E753A00E537242BF9E3FAE5372423F8E2F53CAB3C8A
:2006A9007441B53602806A7442B5360280707446B53603020763744AB53603020777744B13
:2006C900B536030207CE744CB536030207F5744DB5360302086D744EB536030208D3744F2A
:2006E900B536030208D37451B5360302080E745BB536030207A87465B53603020831746611
:20070900B53603020843746EB53603020853020911BB01028003020933E4F2020936EB606B
:200729000302093374FD25395006753A29020936E537253725E02433FDC000A805E4F20815
:20074900F208F208F2D00004F274F05538FDE539253925E0FC4DF302093674FD25375003D8
:2007690002092EE5372420F8E538F20209367528007D00ED2423F8E4F20DBD08F675260010
:200789007822E4F27821F27820F2C2007800746FF278017420F27582011200B302094EE5C2
:2007A900266006753A190209367823E2FDBD01028003020933D200052678237402F27853D5
:2007C900E4F2020936300003020933BB0102800302093305267402F2E5372453F9E4F3EA29
:2007E90020E4030209367403F2020936BB0200500302093315267401F2753B071000030242
:200809000936020936AD397C00AE387F00EE4CF582EF4DF583781AE2F51B781BE2F51C8594
:20082900371D12029802093685381B85391C85371D90C001120298020936E5387006532897
:200849007F020936432880020936AE387F00EE541E7003EF60028006853828020936753ABF
:20086900330209367800E538F27801E537F27451B5380280077452B53846802AE537253797
:2008890025E02433F8E2FC08E2FD08E2FE08E2FF7802ECF208EDF208EEF208EFF275820559
:2008A9001200B302094EEB600A8A075307FC8B06EF4EFB7802EBF27582021200B302094E9E
:2008C90085388212010E505D807BE53C7007300059E5376055EA30E105753A1F804F744FB5
:2008E900B53603430202430201EAF3753AFFE53775F008A42446FE741D35F0FF8E828F837D
:20090900751B181201AD802574BF25365006E53624AE50197F00EF9018A393FEB5360280D0
:200929000C0FBF0CF1753A288003753A15853A2985362A8537821200ED853B29752A0185A1
:2009490037821200ED907FC7E4F0907FB6E0FF20E159E52560557F00C3EF9525501CEF2405
:2009690080FDE4347EFEEF24E6F582E4341CF583E0FC8D828E83F00F80DE907FB7E525F028
:20098900752500C3EF9524501FE52524E6FDE4341CFEEF24E6F582E4341CF583E0FC8D8290
:0C09A9008E83F00F052580DB85252422BD
:20182E000C3E415032555342312E3035000754080300BA36000355AD000561F42B251202C6
:20184E00A70106C6A0A1A2A3A40010191019101910191019101910191019505104FF0000F0
:20186E000000000050FFFF010700200851FF000301C0000036FFFFFFFF64000747FFFFFFE7
:20188E00FF0000001019FFFFFFFFFF2319FFFFFFFFFF1F30005053595A6063676A70717551
:0118AE00AD8C
:2009B5007F047EA0907FA5E0FD20E6F8907FA57480F0907FA6EEF00E7D00907FA5E0FC307C
:2009D500E0F8907FA5E0FC20E20CEF20E10A907FA5E0FC20E1027F28BD0E09907FA5E0FCF4
:2009F50074204CF0BD0F027F2AEF30E309907FA5E0FC74404CF0EF30E1158D040DEC2486C7
:200A1500FCE4341DFB907FA6E0FA8C828B83F0EF20E41CEF30E50122EF30E006907FA6E02A
:140A35007F02BF0495907FA6E4F07F180209CF7F010209B996
:060000000200310210D1E4
:03000B000210A63A
:03001300020A4995
:03001B0002104D83
:0100230032AA
:03002B00020A5F67
:1B008E00753EFF75451E7546E8754701754CF0754D00754E0D754F0A02002E2C
:03002E00020C843D
:200A4900C0E0C082C083907F98E4F0D205D206D083D082D0E032C0E0C082C083C007C0D03B
:200A690075D000300D0D200E12D20E907F9D740BF08008C20E907F9D740FF0907F9BE0FFA3
:200A8900A2E59212C374D0954174039542500920090ED209D20880080541E4B541020542C1
:200AA900A207201201B3401B201218C3E541947AE5429400400D854143854244D208E4F533
:200AC90041F542A2129207E514600215141545E5457005D20B75453D154674FFB546021517
:200AE90047E54645477008D20C7546E8754701C2CF74012548F548E43549F549E4354AF591
:200B09004AE4354BF54BD20AD0D0D007D083D082D0E032D213740825CD500C30130122757A
:200B29004E0D754F0A8074907F9AE0FF30E267C2AFC2CAAFCCAECDD2CAD2AF3013012253C5
:200B4900060FE5502550248DF98E05E4FEFCEF4206EC4205EEF309EDF30550535003E4F5AA
:200B69004EF54FFFEF2F248DF9E3FD09E3FE19ED254EF54EEE354FF54F0FBF040040E5C21E
:200B89000FC20DE54FC313C54E13C54EC313C54E13C54EF54F22C213020B1EC20FC20D22F4
:200BA900901D967401F07408A3F07401A3F0E4A3F0901D9AF0A3F0901D9DF0901D9EF09027
:200BC9001D9F740AF07864E2FE08E2FF901DA0EEF0EFA3F0785DE2901D9CF0785DE4F2787D
:200BE90063E2FFBF0411901D9A74A3F07416A3F0901D9E7403F022BF0130901D9A74E8F012
:200C09007403A3F0785EE2FD08E2FEC374AA9D74059E500F1216AEAD82AE83901D9AEDF0D6
:200C2900EEA3F0901D9E7402F022BF02217877E2FE243750027EC8EE75F032A4FEADF0905F
:200C49001D9AEEF0EDA3F0901D9E7402F022BF03297881E2FE08E2FFEE24E0F51BEF34B120
:200C6900F51C90000D1217F1AE82AF83901D9AEEF0EFA3F0901D9E7402F022907F92E0FF47
:200C890074024FF0758E00907F93E4F0907F9C7430F0907F96E4F0907F94F0907F9D740FA3
:200CA900F0907F97E4F0907F95F0907F9EF0907F98F012156C1215851200A91209B5753D7D
:200CC90009753F00901D89E0FEA3E0FFBE0206BF1903753F10BEBE06BFE603753F20D2AFD4
:200CE900C2ACC28CC28DC2A9C28EC28FC2AB758900AF8E74E75FF58EC2CAC2CFC2ADAF8E26
:200D090074DF5FF58EC2CBC2C9C2C875CBF075CA0075CDF075CC00D2ADC2BDD2CAD288C25B
:200D290089D2BAD28AC28BD2AA1214B5E514700B300F08D20D300E03120B1C1205BB12128B
:200D490064201703020DDE7867E2FF530703C217785DE2FE901DB4E054014206785DEEF2C1
:200D6900901DAAE0FDA3E0FE785EEDF208EEF2901DB0E0FDA3E0FE7860EDF208EEF2901D11
:200D8900B6E0FE7862EEF27867E2FE0E7867EEF27868E2FD08E2FEEF2F246AF9E3FC09E359
:200DA900FF19EDC39CFDEE9FFE7868EDF208EEF2C001121708AE82AF83D001EEF309EFF3A6
:200DC900197868E2FC08E2FDEE2CFEEF3DFF7868EEF208EFF2E53D30E62FE514702B200F36
:200DE900281011028015901D967402F0E4A3F0A3F0A3F07582041211BD800E1010028009B0
:200E0900120BA975820C1211BDE53D200803020ECD75400020091285431B85441C907271CB
:200E2900121763AE82AF838E407E6A7F1874002FFF8E518F5274062551FCE43552FD8C82AA
:200E49008D83E0FB0B8C828D83EBF074022551FCE43552FD74042551FAE43552FB8A828B65
:200E690083E0FEA3E0FF8C828D83EEF0EFA3F08A828B83E0F553A3E0F554854382E544C5C2
:200E89008225E0C58233C58225E0C58233F583751B4C751C861215BBAEF0FF8E048F05EC86
:200EA9002553FCED3554FD8A828B83ECF0EDA3F0855182855283A3A3A3A3A3A3A3E540F090
:200EC900C208D21B100B02800A120477D210D20F12164710050280127449B53D05753D815C
:200EE9008008E53D20E403753D111018028012E53D30E305753D498008E53D30E503753D10
:200F09008120140B744AB53D06201103753D09100C02801E1006028005753D818014E53D21
:200F290030E405753D09800A7409B53D05753D4AD211E53EB53D03020FDE853D3EC28EC2DE
:200F49008FC2ABC2A8C2A9C214C215907F9EE4F0907F98F0907F95F0E53F30E419E53D30BB
:200F6900E606907F987480F0E53D5460602A907F9E7480F08022E53F30E51D907F957401EF
:200F8900F0E53D30E606907F987402F0E53D54606006907F9E7402F0E53D30E3031210E183
:200FA900AF3DBF11028012BF49028005BF812080109090001215FA801C90AAAA1215FA80F7
:200FC900149055551215FA90AAAA1215E780069000001215FA12160D907F9AE0FE7F00E550
:200FE9004C6EFCE54D6F7D00EC524CED524DE54C30E6157864E2FC08E2FD74192CFCE43D2B
:20100900FD7864ECF208EDF2E54C30E5167864E2FC08E2FDEC24E7FCED34FFFD7864ECF262
:2010290008EDF2E54C30E7067864E4F208F2E54C30E40978647410F2087404F28E4C8F4DFE
:03104900020D3263
:20104C0032C0D075D0080586FF907F9BE0A2E2EE7007403AFD7E09802FDE2AC28E503120D2
:20106C001634301517BD170AD216E8C394B3F5128016B8E502801DEDF208800CBD0119786B
:20108C00B3D2158003ED13FDEF0586D0D03280F8C21580F4C21580F080EEC0D075D0880504
:2010AC0086CB907F98F0DA13E3B41706C2A9C214800D7A0A09E3F50CE48004EC13FC9CCB92
:2010CC000586D0D032C0D0C28E758BCCC28FD28EA214D0D032C28CC28DC2A9AF8974F05FBF
:2010EC00F589AF8E74F75FF58ED2B9438902758C98D28CC28EC28FC2ABAF89740F5FF589E6
:20110C00AF8E74EF5FF58ED2BBD2AB438920758D98758BCCD2B87E4D7F108F0590001CEDD4
:20112C00F090001DEEF07ED17F108F05900004EDF07F00900005EEF08F0ED2A822E582A211
:20114C00D022A9827517C17518C0AD168D041DEC604AE3FC097B00E5176204E51862038519
:20116C0018177518008C8212114950066317016318C07B008C02EBCA25E0CA33FFEA620412
:20118C00EF6203EB5403A2E0CC13CC13A2E0CC13CC13CCFBEC6217EB621880B085178285C9
:2011AC00188322E582540F2430D430E60104F58222E582FFFE24F3500302124EE53D20E668
:2011CC000302124E7F017895EFF27D00C3ED9E5031ED2496F582E4341DF583E0FC8F030F9C
:2011EC00EB2495F9ECC4540FF5821211AFE582F38F030FEB2495F98C821211AFE582F30D0B
:20120C0080CAEF14F516758296C00712114EAD82AE83D007ED8E05FE7C04EC2F142495F98F
:20122C008D821211AFE582F3EEC4CDC4540F6DCD540FCD6DCDFEDCE2EF2404FF2495F87426
:20124C0017F2D214750995750A0A750B00750C01C28DD2A975141D222016030213107EA2E5
:20126C007F1D751A0074FC25125006E51224CD5005C2190213017BA27C1D7A00C3EA951288
:20128C00503AEA24B3F9E3FD600C74204D75F02784E5F024F7FDED54F060028054E51AC4AA
:2012AC0054F02DF51AEA30E0108B828C83E51AF0A3AB82AC838B068C070A80C074FE2EF58B
:2012CC008274FF3FF583E0FEA3E0FFE51224FCF5167582B3C007C00612114E85821085830D
:2012EC0011D006D007EEB51008EFB51104D21980040515C219301904D217D218751400C2E1
:12130C0015C2162230150AE51470060515C215C2162217
:20131E00907FECE033541E600BC4B313500490000022C42324B4F58222907F00E4F0907FEA
:20133E0001F0907FE8E0FFBF8002802EBF81028029BF822E12131EAE82AF837D008E028F3E
:20135E00038D04EE4F601B8A828B838CF012180EFA30E006907F007401F0907FB57402F0A7
:20137E00D322C322907FE8E0FF602CBF0232907FEAE0FEA3E0FF4E701E12131EAE82AF8346
:20139E00EE4F7002C3228E828F83E0FD5305FE8E828F83EDF08009907FB4E0FF74014FF068
:2013BE00D322907FE8E0FF602CBF0229907FEAE0FEA3E0FF4E701C12131EAE82AF83EE4FB9
:2013DE0060118E828F83E0FD4305018E828F83EDF08002C322D3227F00907FEAE0A3E0FE02
:2013FE00FDBD0102800DBD02028021BD030280340214927DAF7E188E05907FD4EDF07DAFC4
:20141E007E187E00907FD5EDF00214947DC17E188E05907FD4EDF07DC17E187E00907FD5D2
:20143E00EDF08052907FECE0FDA3E0FEBD0919BE0416907FEAE0FDA3E07E00BD04005034B3
:20145E00ED90191D93FF800B907FECE0FDA3E0FE4D7021EF75F002A424E1FE741835F0FFBA
:20147E008E048F058D04907FD4ECF07F00907FD5EEF08002C322D322907FD77401F074215B
:20149E00F07401F07421F0907FB67402F0907FC6E4F0907FC7F022907FAAE0FF30E00EAF33
:2014BE009174EF5FF591907FAA7401F022907FABE0FF20E00122AF9174EF5FF591907FABF7
:2014DE007401F0907FE9E0FF24F35003021562EFF5F0240B83F582E5F0241183F583E47376
:2014FE00181F592659572D59345740525715151515151515151515151515121337404580FC
:20151E003A121382403E80331213C04037802C1213F5403080259018C6E493FF907F00F081
:20153E00800A9018CCE493FF907F00F0907FB57401F08010121496800B8009907FB4E0FFEF
:20155E0074014FF0907FB4E0FF74024FF022907FDE7402F0907FDFF0907FE0E4F0907FE15C
:20157E00F0907FA104F022907FD6740AF07E607FEAEE24FFFCEF34FFFD8C068D07EC4D7002
:1D159E00F0907FA974FFF0907FAAF0907FABF0AF9174EF5FF591907FD67406F022D9
:2018AF001201100100000020CF0F081000010102030109022000010100808009040000029B
:2018CF00FF00000007058102400000070501024000000403090408034D00480049001203CA
:2018EF0045007A0054007200610043006F006E001E03320030002F00300034002F0031005D
:12190F0030002000320031003A00310035000002060F5C
:2015BB00E582851BF0A4ADF0C582851CF0A42DFDE435F0C583FC851BF0A42DC58335F0FD1A
:0C15DB00E433CC851CF0A42DC5F03C22AC
:2015E700AE82AF83785AA60608A607785CA60608A60722AE82AF83785EA60608A607786087
:20160700A60608A60722201C067861E630E70B907F96E0FF74104FF08009907F96E0FF7455
:20162700EF5FF0201A06785DE630E70A907F96E0FF74204FF022907F96E0FF74DF5FF02288
:20164700785EE633F608E633F618E692E0F67860860608E6CE25E0CE33FF785E7401567DDE
:20166700004206ED42077860A60608A607785AE633F608E633F618E692E0F6785C860608E6
:20168700E6CE25E0CE33FF785A740156FC7D004206ED4207785CA60608A607301B08785D99
:0716A700E64480F6C21B229D
:2016AE00787AE2FE08E2FF748E2EF582E43FF583751B77751C8A1215BBAC82AD83AEF0FF20
:2016CE00785EE2FA08E2FB8A1B8B1C751D00751E008C828D838EF0EF12178CAC82AD83AEA8
:2016EE00F0FFC3EC9453ED9403500490000022EC24ADF582ED34FCF583227860E2FE08E240
:20170E00FFC3948040049000002274532EFE74033FFF751B54751C768E828F831215BBAEAA
:20172E00F0FF8E028F03785EE2F51B08E2F51C8A828B831215BBAC82AD83AEF0FFC3EE948B
:15174E0023EF9400500490000022EE24DDF582EF34FFF58322B8
:201763007A10E4FBFCE58225E0F582E58333F583EB33FBEC33FCEB951BF5F0EC951C400674
:09178300FCABF0438201DADD2227
:20178C00FB7A20E4FCFDFEFFE5822582F582E58333F583E5F033F5F0EB33FB4017DAE98096
:2017AC0042E5822582F582E58333F583E5F033F5F0EB33FBEC33FCED33FDEE33FEEF33FFC5
:2017CC00EC951BED951CEE951DEF951E4013EC951BFCED951CFDEE951DFEEF951EFF4382F7
:0517EC0001DABEEB2252
:06006000E478FFF6D8FD74
:20003E007900E94400601B7A0090192178BB75921DE493F2A308B800020592D9F4DAF27573
:02005E0092FF0F
:1D17F100E582851BF0A4C582C0F0851CF0A4D0F025F0C583851BF0A42583F5832281
:2000660078E6E84400600A790075921CE4F309D8FC78D5E84400600C7901901CE6E4F0A3CE
:04008600D8FCD9FACF
:0D00310075816112182AE582600302002E1D
:1C180E0020F71430F6148883A88220F507E6A88375830022E280F7E49322E022E9
:04182A0075820022A1
:00000001FF
