:04008A0078697655C6
:2000A90078647410F2087404F222E582FFAD262D2404FEED24E6F582E4341CF583249F40A8
:2000C90021EEF52624BF40028E2774A4F0A3FCEFF0A362040F750100E309F0A36204DFF843
:2000E900ECF02222AF82E52B30E7012278007440F27801EFF27802E52CF27803E52BF27575
:2001090082030200B3AF827D7F7E198D828E83E0F52EA3AD82AE83E52E603F8D828E83E000
:20012900FBEFB5032C79008D028E03752D00C3E52D952E50128A828B83E0FCA3AA82AB83C0
:20014900ECF309052D80E7E52E14F5821200B3D322E52E2DFDE43EFE80B1C322AF8275653F
:20016900BB756619AB65AC668B828C83E0FA8A676030EFB5671FAA65AE6679027564088AFB
:20018900828E83E0FDA3AA82AE83EDF3091564E4B564ECD32274082BFBE43CFC8B658C6606
:2001A90080C6C322AE82AF83A9647D08E3FC098E828F83ECF0A3AE82AF83DDF022AF827993
:2001C90000EF75F008A42446FE741D35F0FF7D088E828F83E0FCA3AE82AF83ECF309DDF0BC
:2001E900221201C67800E2FFBF30005003020277EF24CC40797DDB7E1974002EFE8D828E21
:2002090083A3EFF074022DFBE43EFC8B828C83E0FA0A8B828C83EAF08D828E83A3A3A3E431
:20022900F08F057E00ED24D0FDEE34FFCD25E0CD33CD25E0CD33FEED2474F582EE341CF5E3
:20024900837804E2FB08E2FC08E2FD08E2FEEBF0ECA3F0EDA3F0EEA3F078637403F2BF3076
:200269000578637402F2BF310578637401F2BF370D756400901C84C0071201ADD007BF4687
:200289000D7807E2FFBF010678067968E2F722AE82AF83E566256625E02433F9EEF309EF62
:2002A900F319740229F8747F5564F2090909AF65EFF32285822F8583307DFF8D3175320072
:2002C900AA307B00EB2B25E02433F533D203D204EB242BF8E2FC20E47CEC0303543FFC74F6
:2002E900035C2420F8E2FCBCB96BA833E2F53408E2F535E52FB53407E530B53502800AC251
:2003090004E53445356002C20374022533F8E2FCAF2FB507028007C204EC6002C2037403FF
:200329002533F9E3FFB502028007C204EF6002C203EB2423F9E3FFBF020B300318ED30E73D
:20034900148B058010BF03028003300008300405853231800B0B8B32BB080050030202CD86
:20036900300017ED60047FFF800DE53120E704AE3180027E008E078F8222E53130E722EDCD
:2003890020E71EAE2F8E648A658D66852F82853083C005120298D005EDF5312423F8740301
:2003A900F2E53120E707E5312453F8E4F2853182227F00EF2423F9E3FEBE03427EFFEF2447
:2003C9002BF8E2FD30E40E7E03ED30E12374FD5DF27E06801BEF2453F8E270057408F280CC
:2003E9000F7E02E2FD1DEDF2ED70057E087402F38E2B752C018F82C0071200EDD0070FBF62
:2004090008B122AF8274C025264004EF30E701227800744EF27801EFF27F00E52A604774AC
:200429000A2400F9E52AF309E52A30E712E536F309E537F309E536F309E537F3097F04E583
:200449002A30E6127410F309E4F3097468F309E4F309EF2404FFE52A30E50A7455F30978A8
:2004690069E6F30F0F0F74092FF5820200B37869740826F67869E630E3331203BA900178CE
:200489001202BCE582FF20E723758204C007120165D007786974405625E0FE74044E7802B4
:2004A900F27536787537018F8202040C227DE37E1974002EFE786A068D828E83A3A3786A65
:2004C900E6F074042DFDE43EFE785EE2FB08E2FC8D828E83EBF0ECA3F07DEB7E1974002EC7
:2004E900FE74012DFBE43EFC8B828C83E0FA0A8B828C83EAF074022DFBE43EFC7862E28B41
:20050900828C83F074052DFDE43EFE7868E2FB08E2C313CB13CBC313CB13CBFC53040F8DFA
:20052900828E83EBF0A3EC540FF5F0E054F045F0F09005111202BCE582FF30E70122EF24FB
:200549002BF9E3FE540360407D03EE30E1027D058D2B752C018F82C007C0011200EDD001D0
:20056900D007E3FE74FC5EF3EFFD3395E0FE8D828E83C0071201EA78688682120165D0074C
:20058900500678687600801AE5299019A993FE05297412B529037529008E82C00712016599
:2005A900D0073000027F007536117537058F8202040C753DFF907FC6E0FE30E10302095344
:2005C900907FC7E0FE907E40E0FDBDA40280047D00804B907E41E0FC24DE50047D03803E45
:2005E90074A46CFB7A0074022A2440F582E4347EF583E0FF6203BA0A00500874022A241438
:20060900F8EFF20AC3EC9A50DD74022A2440F582E4347EF583E0FFB5030280507D027F0088
:20062900C3EF9E400302094EEF2440FBE4347EFC8B828C83E070030F80E6780074AEF278FD
:2006490001EDF2EE24DF50027E20EE04FFEF6014EF2401F9EF243FF582E4347EF583E0FDBB
:20066900F31F80E98E821200B302094E7816E2F5387818E2F53A7819E2F53B7817E2FC7406
:200689001F5CF539C39408400302092E753C00E539242BF9E3FAE5392423F8E2F53EAB3E7E
:2006A9007441B53802806A7442B5380280707446B53803020763744AB53803020777744B0B
:2006C900B538030207CE744CB538030207F5744DB5380302086D744EB538030208D3744F22
:2006E900B538030208D37451B5380302080E745BB538030207A87465B53803020831746609
:20070900B53803020843746EB53803020853020911BB01028003020933E4F2020936EB6067
:200729000302093374FD253B5006753C29020936E539253925E02433FDC000A805E4F2080D
:20074900F208F208F2D00004F274F0553AFDE53B253B25E0FC4DF302093674FD25395003D0
:2007690002092EE5392420F8E53AF2020936752A007D00ED2423F8E4F20DBD08F675280008
:200789007822E4F27821F27820F2C2007800746FF278017420F27582011200B302094EE5C2
:2007A900286006753C190209367823E2FDBD01028003020933D200052878237402F27853CF
:2007C900E4F2020936300003020933BB0102800302093305287402F2E5392453F9E4F3EA25
:2007E90020E4030209367403F2020936BB0200500302093315287401F2753D07100003023E
:200809000936020936AD3B7C00AE3A7F00EE4CF582EF4DF583781AE2F564781BE2F56585FE
:200829003966120298020936853A64853B6585396690C001120298020936E53A7006532A67
:200849007F020936432A80020936AE3A7F00EE541E7003EF60028006853A2A020936753CB5
:20086900330209367800E53AF27801E539F27451B53A0280077452B53A46802AE53925398B
:2008890025E02433F8E2FC08E2FD08E2FE08E2FF7802ECF208EDF208EEF208EFF275820559
:2008A9001200B302094EEB600A8A075307FC8B06EF4EFB7802EBF27582021200B302094E9E
:2008C900853A8212010E505D807BE53E7007300059E5396055EA30E105753C1F804F744FAD
:2008E900B53803430202430201EAF3753CFFE53975F008A42446FE741D35F0FF8E828F8377
:200909007564181201AD802574BF25385006E53824AE50197F00EF9019F493FEB53802802F
:200929000C0FBF0CF1753C288003753C15853C2B85382C8539821200ED853D2B752C01858D
:2009490039821200ED907FC7E4F0907FB6E0FF20E159E52760557F00C3EF9527501CEF24FF
:2009690080FDE4347EFEEF24E6F582E4341CF583E0FC8D828E83F00F80DE907FB7E527F026
:20098900752700C3EF9526501FE52724E6FDE4341CFEEF24E6F582E4341CF583E0FC8D828A
:0C09A9008E83F00F052780DB85272622B7
:20197F000C3E415032555342312E3035000754080300BA36000355AD000561F42B25120274
:20199F00A70106C6A0A1A2A3A40010191019101910191019101910191019505104FF00009E
:2019BF000000000050FFFF010700200851FF000301C0000036FFFFFFFF64000747FFFFFF95
:2019DF00FF0000001019FFFFFFFFFF2319FFFFFFFFFF1F30005053595A6063676A707175FF
:0119FF00AD3A
:2009B500C0E0C082C083C007C006C0D075D000C28E1008028020AF0D8F8DAE0CE50D7F008E
:2009D5008E8BD28EE54130E4047F8080027F02907F98EFF08005907F98E4F0D0D0D006D07D
:2009F50007D083D082D0E032C0E0C007C006C005C004C0D075D000AFCDA2CF920AAECCAD19
:200A1500CDEFB505028008AECCA2CF920A8D07EFC454F0FDEEC4540F4DFFAE4F300A010E0B
:200A35007D008E04E42FFEEC3DFCEEC39518F51AEC9519F51B8E188C190516D0D0D004D09B
:200A550005D006D007D0E032C20BC2AFAE0EAF0FAC1AAD1BD2AFEC4D7004900000227A60ED
:200A75007B00C3EA9CE49D50048C028D038A648B6575660075670090BE0075F005E4C007B2
:200A9500C00612190DA882A983D006D007881C891D75649E7565068E828F831216BAA9836F
:200AB500ACF0FD89008C018D047D00743E28F8740239F9EF24F8FF30E709C3E49EFEE49FFA
:200AD500FFD20BEE249DFEEF34FBFF30E707C3E49EFEE49FFF8E648F658E828F831216BA8E
:200AF500AC82AD83AEF0FF8D028E0374FA2AFA744C3BFB7449C39CFC743E9DFD74139EFEB7
:200B1500E49FFF30E70FC3E49CFCE49DFDE49EFEE49FFFB20B8E078D068C057C008A648BEE
:200B3500658C668C678C828D838EF0EFC001C00012190DAC82AD83D000D00175648B7565D5
:200B5500178C828D831216BAAA82AB83AEF0FF8E048F05300B07C3E49CFCE49DFD747E2C2F
:200B7500FC740C3DFD851C64851D658C828D831216BAAB83AEF0C313CE13CB13FC8B05E9C8
:200B9500C313C813C8F9E82CFCE93DFD851C64851D658C828D831216BAAEF0FF8E048F05CC
:200BB50075640D7565008C828D830216BAC025C0E0C0F0C082C083C007C006C005C004C0E0
:200BD50003C002C001C000C0D075D000907F98E4F0308E05753F81C28E750E00750F08E52E
:200BF5003F30E56E30096BE4B510077408B5110280607FFAD20CAD10E51124F8FE30E70962
:200C1500C20CC3E49DFDE49EFE7431B53F13300C08758DFF758B38801B758DB1758B188021
:200C350013300C08758DFF758B5A8006758DBE758B3F7FFB8F647565008D828E831218F0E7
:200C550085820C85830DD208C28FD28E85100E85110F05081007028006850809750800D2F3
:200C750005D206D0D0D000D001D002D003D004D005D006D007D083D082D0F0D0E0D025320A
:200C9500C28EC28FC2ABAF89740F5FF589AF8E74EF5FF58EC2B87EB57F098F0590001CEDB5
:200CB500F090001DEEF07EFD7F098F05900004EDF0900005EEF0D2AB438910D2A8227F00B5
:200CD50074D32509501274C9250940047F31800874BF250940027F32EFB53F0122EFB50A39
:200CF5000C050B74FD250B500A8F3F8006750B00753F098F0A22AE82AF83C2AA8E108F1170
:030D1500D2AA223D
:200D18007F047EA0907FA5E0FD20E6F8907FA57480F0907FA6EEF00E7D00907FA5E0FC3015
:200D3800E0F8907FA5E0FC20E20CEF20E10A907FA5E0FC20E1027F28BD0E09907FA5E0FC8D
:200D580074204CF0BD0F027F2AEF30E309907FA5E0FC74404CF0EF30E1158D040DEC248660
:200D7800FCE4341DFB907FA6E0FA8C828B83F0EF20E41CEF30E50122EF30E006907FA6E0C4
:140D98007F02BF0495907FA6E4F07F18020D327F01020D1C62
:060000000200310209FDBF
:01000B0032C2
:03001300020BC21B
:03001B000209B522
:0100230032AA
:03002B00020DAC17
:1B008E007540FF754C1E754DE8754E017553F075540075550D75560A02002EF9
:03002E0002101BA2
:200DAC00C0E0C082C083C007C0D075D00030170D201812D218907F9D740BF08008C21890D1
:200DCC007F9D740FF0907F9BE0FFA2E5921AC374D09543740395445009200F0ED20FD20E36
:200DEC0080080543E4B543020544A20D201A01B3401B201A18C3E543947AE5449400400DA3
:200E0C00854345854446D20EE4F543F544A21A920DEFA2E4921BC374D09547740395485071
:200E2C000920120ED212D21180080547E4B547020548A210201B01B3401B201B18C3E54755
:200E4C00947AE5489400400D85474985484AD211E4F547F548A21B9210E56260021562156A
:200E6C004CE54C7005D215754C3D154D74FFB54D02154EE54D454E700AD216754DE8754EBF
:200E8C0001D207C2CF7401254FF54FE43550F550E43551F551E43552F552D214D0D0D00741
:200EAC00D083D082D0E032D21C740825CD500C301C012275550D75560A8074907F9AE0FF50
:200ECC0030E267C2AFC2CAAFCCAECDD2CAD2AF301C012253060FE5572557248DF98E05E4CD
:200EEC00FEFCEF4206EC4205EEF309EDF30557535703E4F555F556FFEF2F248DF9E3FD0986
:200F0C00E3FE19ED2555F555EE3556F5560FBF040040E5C219C217E556C313C55513C55553
:200F2C00C313C55513C555F55622C21C020EB5C219C21722901D967401F07408A3F0740176
:200F4C00A3F0E4A3F0901D9AF0A3F0901D9DF0901D9EF0901D9F740AF07864E2FE08E2FFDD
:200F6C00901DA0EEF0EFA3F0785DE2901D9CF0785DE4F27863E2FFBF0411901D9A74A3F03F
:200F8C007416A3F0901D9E7403F022BF0130901D9A74E8F07403A3F0785EE2FD08E2FEC367
:200FAC0074AA9D74059E500F1217ADAD82AE83901D9AEDF0EEA3F0901D9E7402F022BF0285
:200FCC00217877E2FE243750027EC8EE75F032A4FEADF0901D9AEEF0EDA3F0901D9E7402F8
:200FEC00F022BF03297881E2FE08E2FFEE24E0F564EF34B1F56590000D1218F0AE82AF8394
:20100C00901D9AEEF0EFA3F0901D9E7402F022907F92E0FF74024FF0758E00907F93E4F09C
:20102C00907F9C7430F0907F96E4F0907F94F0907F9D740FF0907F97E4F0907F95F0907F1D
:20104C009EF0907F98F012166B1216841200A9120D18753F09754100901D89E0FEA3E0FF25
:20106C00BE0206BF1903754110BEBE06BFE603754120D2AFC2ACC28CC28DC2A9C28EC28F65
:20108C00C2AB758900AF8E74E75FF58EC2CAC2CFC2ADAF8E74DF5FF58EC2CBC2C9C2C8754A
:2010AC00CBF075CA0075CDF075CC00D2ADC2BDD2CAD288C289D2BAD28AC28BD2AA1215B4EC
:2010CC00E562700B301908D217301803120EB31205BB75580075590820090302115F120ABB
:2010EC005D8582128583137863E2FDBD014C851058851159785BE2FB08E2FCAA12AF13C3DC
:20110C00EA9BEF9C5016C3E5116480948F500D74082558F558E43559F559803CC3E4951022
:20112C0074818511F063F08095F0502CE55824F8F558E55934FFF559801EBD031B785BE2C1
:20114C00FE08E2A2E713CE13CEFF8E5874082FF5598005E4F512F513855882855983120D1B
:20116C000BE516FFC39517FEFD60198F177F007E007C00786DED26F6EF0836F6EE0836F629
:20118C00EC0836F630111C754B00201214D213854964854A65907271121862AE82AF838E86
:2011AC004BC211200E03021268754200200F12854564854665907271121862AE82AF838E13
:2011CC00427EBB7F1974002FFF8E5A8F5B7406255AFCE4355BFD8C828D83E0FB0B8C828D77
:2011EC0083EBF07402255AFCE4355BFD7404255AFAE4355BFB8A828B83E0FEA3E0FF8C823B
:20120C008D83EEF0EFA3F08A828B83E0F55CA3E0F55D854582E546C58225E0C58233C582AE
:20122C0025E0C58233F58375644C7565861216BAAEF0FF8E048F05EC255CFCED355DFD8A12
:20124C00828B83ECF0EDA3F0855A82855B83A3A3A3A3A3A3A3E542F0C20ED22310150280DA
:20126C0008120477D21912174610050280127449B53F05753F818008E53F20E403753F1167
:20128C001021028012E53F30E305753F498008E53F30E503753F81101602805910060280B2
:2012AC004C786D86060886077871EEC396F514EF0896F5157871A60608A607C374179514BF
:2012CC00E495159209C374059514E4951550148514648515659000181218F0858214858321
:2012EC00158005E4F514F515120CD38008E53F30E403753F09E540B53F030213AE853F40FD
:20130C00C28EC28FC2ABC2A8C2A9C21DC21E900800120D0B907F9EE4F0907F98F0907F95A1
:20132C00F0E54130E419E53F30E606907F987480F0E53F54606021907F9E7480F08019E52B
:20134C004130E514907F957401F0E53FE53F54606006907F9E7402F0E53F30E503120C95AA
:20136C00AF3FBF1102800FBF31028012BF32028015BF8128801890AAAA1216F9802490923B
:20138C00001216F9801C9092401216F980149055551216F990AAAA1216E6800690000012F8
:2013AC0016F912170C907F9AE0FE7F00E5536EFCE5546F7D00EC5253ED5254E55330E61589
:2013CC007864E2FC08E2FD74192CFCE43DFD7864ECF208EDF2E55330E5167864E2FC08E2E5
:2013EC00FDEC24E7FCED34FFFD7864ECF208EDF2E55330E7067864E4F208F2E55330E409DD
:10140C0078647410F2087404F28E538F540210C96D
:01141C00329D
:20141D00907FECE033541E600BC4B313500490000022C42324B4F58222907F00E4F0907FEA
:20143D0001F0907FE8E0FFBF8002802EBF81028029BF822E12141DAE82AF837D008E028F3E
:20145D00038D04EE4F601B8A828B838CF012195FFA30E006907F007401F0907FB57402F055
:20147D00D322C322907FE8E0FF602CBF0232907FEAE0FEA3E0FF4E701E12141DAE82AF8346
:20149D00EE4F7002C3228E828F83E0FD5305FE8E828F83EDF08009907FB4E0FF74014FF068
:2014BD00D322907FE8E0FF602CBF0229907FEAE0FEA3E0FF4E701C12141DAE82AF83EE4FB9
:2014DD0060118E828F83E0FD4305018E828F83EDF08002C322D3227F00907FEAE0A3E0FE02
:2014FD00FDBD0102800DBD02028021BD030280340215917D007E1A8E05907FD4EDF07D0020
:20151D007E1A7E00907FD5EDF00215937D127E1A8E05907FD4EDF07D127E1A7E00907FD52A
:20153D00EDF08052907FECE0FDA3E0FEBD0919BE0416907FEAE0FDA3E07E00BD04005034B3
:20155D00ED901A6E93FF800B907FECE0FDA3E0FE4D7021EF75F002A42432FE741A35F0FF15
:20157D008E048F058D04907FD4ECF07F00907FD5EEF08002C322D322907FD77401F074215B
:20159D00F07401F07421F0907FB67402F0907FC6E4F0907FC7F022907FAAE0FF30E00EAF33
:2015BD009174EF5FF591907FAA7401F022907FABE0FF20E00122AF9174EF5FF591907FABF7
:2015DD007401F0907FE9E0FF24F35003021661EFF5F0240B83F582E5F0241183F583E47376
:2015FD00171E582558562C5833563F515616161616161616161616161616121436404580FC
:20161D003A121481403E80331214BF4037802C1214F440308025901A17E493FF907F00F02E
:20163D00800A901A1DE493FF907F00F0907FB57401F08010121595800B8009907FB4E0FF9C
:20165D0074014FF0907FB4E0FF74024FF022907FDE7402F0907FDFF0907FE0E4F0907FE15C
:20167D00F0907FA104F022907FD6740AF07E607FEAEE24FFFCEF34FFFD8C068D07EC4D7002
:1D169D00F0907FA974FFF0907FAAF0907FABF0AF9174EF5FF591907FD67406F022D9
:201A00001201100100000020CF0F0810000101020301090220000101008080090400000248
:201A2000FF00000007058102400000070501024000000403090408034D0048004900120377
:201A400045007A0054007200610043006F006E001E03320030002F00300034002F0031000A
:121A600030002000320031003A00310035000002060F0A
:2016BA00E5828564F0A4ADF0C5828565F0A42DFDE435F0C583FC8564F0A42DC58335F0FD3F
:0C16DA00E433CC8565F0A42DC5F03C2263
:2016E600AE82AF837873A60608A6077875A60608A60722AE82AF837877A60608A607787923
:20170600A60608A60722202406787AE630E70B907F96E0FF74104FF08009907F96E0FF7434
:20172600EF5FF02022067876E630E70A907F96E0FF74204FF022907F96E0FF74DF5FF02267
:201746007877E633F608E633F618E692E0F67879860608E6CE25E0CE33FF78777401567D93
:20176600004206ED42077879A60608A6077873E633F608E633F618E692E0F678758606089B
:20178600E6CE25E0CE33FF7873740156FC7D004206ED42077875A60608A607302308787646
:0717A600E64480F6C2232295
:2017AD00787AE2FE08E2FF748E2EF582E43FF58375647775658A1216BAAC82AD83AEF0FF8E
:2017CD00785EE2FA08E2FB8A648B657566007567008C828D838EF0EF12188BAC82AD83AE84
:2017ED00F0FFC3EC9453ED9403500490000022EC24ADF582ED34FCF583227860E2FE08E240
:20180D00FFC3948040049000002274532EFE74033FFF7564547565768E828F831216BAAE18
:20182D00F0FF8E028F03785EE2F56408E2F5658A828B831216BAAC82AD83AEF0FFC3EE94F9
:15184D0023EF9400500490000022EE24DDF582EF34FFF58322B8
:201862007A10E4FBFCE58225E0F582E58333F583EB33FBEC33FCEB9564F5F0EC95654006E2
:09188200FCABF0438201DADD2227
:20188B00FB7A20E4FCFDFEFFE5822582F582E58333F583E5F033F5F0EB33FB4017DAE98096
:2018AB0042E5822582F582E58333F583E5F033F5F0EB33FBEC33FCED33FDEE33FEEF33FFC5
:2018CB00EC9564ED9565EE9566EF95674013EC9564FCED9565FDEE9566FEEF9567FF4382AF
:0518EB0001DABEEB2252
:06006000E478FFF6D8FD74
:20003E007900E94400601B7A00901A7278BB75921DE493F2A308B800020592D9F4DAF27521
:02005E0092FF0F
:1D18F000E5828564F0A4C582C0F08565F0A4D0F025F0C5838564F0A42583F58322A6
:2000660078E6E84400600A790075921CE4F309D8FC78D5E84400600C7901901CE6E4F0A3CE
:04008600D8FCD9FACF
:20190D00FBC2D530E715D2D5E4C39582F582E49583F583E495F0F5F0E49BFBE56730E7176A
:20192D00B2D5E4C39564F564E49565F565E49566F566E49567F567EB12188B30D513FBE4D5
:12194D00C39582F582E49583F583E495F0F5F0E49B22D4
:0D00310075817A12197BE582600302002EB2
:1C195F0020F71430F6148883A88220F507E6A88375830022E280F7E49322E02297
:04197B00758200224F
:00000001FF
